{
  "_format": "hh-sol-artifact-1",
  "contractName": "BlocknogotchiContract",
  "sourceName": "contracts/Blocknogotchi.sol",
  "abi": [
    {
      "inputs": [],
      "stateMutability": "nonpayable",
      "type": "constructor"
    },
    {
      "inputs": [
        {
          "internalType": "address",
          "name": "sender",
          "type": "address"
        },
        {
          "internalType": "uint256",
          "name": "tokenId",
          "type": "uint256"
        },
        {
          "internalType": "address",
          "name": "owner",
          "type": "address"
        }
      ],
      "name": "ERC721IncorrectOwner",
      "type": "error"
    },
    {
      "inputs": [
        {
          "internalType": "address",
          "name": "operator",
          "type": "address"
        },
        {
          "internalType": "uint256",
          "name": "tokenId",
          "type": "uint256"
        }
      ],
      "name": "ERC721InsufficientApproval",
      "type": "error"
    },
    {
      "inputs": [
        {
          "internalType": "address",
          "name": "approver",
          "type": "address"
        }
      ],
      "name": "ERC721InvalidApprover",
      "type": "error"
    },
    {
      "inputs": [
        {
          "internalType": "address",
          "name": "operator",
          "type": "address"
        }
      ],
      "name": "ERC721InvalidOperator",
      "type": "error"
    },
    {
      "inputs": [
        {
          "internalType": "address",
          "name": "owner",
          "type": "address"
        }
      ],
      "name": "ERC721InvalidOwner",
      "type": "error"
    },
    {
      "inputs": [
        {
          "internalType": "address",
          "name": "receiver",
          "type": "address"
        }
      ],
      "name": "ERC721InvalidReceiver",
      "type": "error"
    },
    {
      "inputs": [
        {
          "internalType": "address",
          "name": "sender",
          "type": "address"
        }
      ],
      "name": "ERC721InvalidSender",
      "type": "error"
    },
    {
      "inputs": [
        {
          "internalType": "uint256",
          "name": "tokenId",
          "type": "uint256"
        }
      ],
      "name": "ERC721NonexistentToken",
      "type": "error"
    },
    {
      "inputs": [
        {
          "internalType": "address",
          "name": "owner",
          "type": "address"
        }
      ],
      "name": "OwnableInvalidOwner",
      "type": "error"
    },
    {
      "inputs": [
        {
          "internalType": "address",
          "name": "account",
          "type": "address"
        }
      ],
      "name": "OwnableUnauthorizedAccount",
      "type": "error"
    },
    {
      "anonymous": false,
      "inputs": [
        {
          "indexed": true,
          "internalType": "address",
          "name": "owner",
          "type": "address"
        },
        {
          "indexed": true,
          "internalType": "address",
          "name": "approved",
          "type": "address"
        },
        {
          "indexed": true,
          "internalType": "uint256",
          "name": "tokenId",
          "type": "uint256"
        }
      ],
      "name": "Approval",
      "type": "event"
    },
    {
      "anonymous": false,
      "inputs": [
        {
          "indexed": true,
          "internalType": "address",
          "name": "owner",
          "type": "address"
        },
        {
          "indexed": true,
          "internalType": "address",
          "name": "operator",
          "type": "address"
        },
        {
          "indexed": false,
          "internalType": "bool",
          "name": "approved",
          "type": "bool"
        }
      ],
      "name": "ApprovalForAll",
      "type": "event"
    },
    {
      "anonymous": false,
      "inputs": [
        {
          "indexed": false,
          "internalType": "uint256",
          "name": "_fromTokenId",
          "type": "uint256"
        },
        {
          "indexed": false,
          "internalType": "uint256",
          "name": "_toTokenId",
          "type": "uint256"
        }
      ],
      "name": "BatchMetadataUpdate",
      "type": "event"
    },
    {
      "anonymous": false,
      "inputs": [
        {
          "indexed": true,
          "internalType": "uint256",
          "name": "tokenId",
          "type": "uint256"
        },
        {
          "indexed": true,
          "internalType": "uint256",
          "name": "opponentId",
          "type": "uint256"
        },
        {
          "indexed": false,
          "internalType": "bool",
          "name": "won",
          "type": "bool"
        }
      ],
      "name": "BattleCompleted",
      "type": "event"
    },
    {
      "anonymous": false,
      "inputs": [
        {
          "indexed": true,
          "internalType": "uint256",
          "name": "tokenId",
          "type": "uint256"
        },
        {
          "indexed": true,
          "internalType": "address",
          "name": "claimer",
          "type": "address"
        }
      ],
      "name": "BlocknogotchiClaimed",
      "type": "event"
    },
    {
      "anonymous": false,
      "inputs": [
        {
          "indexed": true,
          "internalType": "uint256",
          "name": "tokenId",
          "type": "uint256"
        }
      ],
      "name": "BlocknogotchiCreated",
      "type": "event"
    },
    {
      "anonymous": false,
      "inputs": [
        {
          "indexed": true,
          "internalType": "uint256",
          "name": "tokenId",
          "type": "uint256"
        },
        {
          "indexed": false,
          "internalType": "enum BlocknogotchiContract.Rarity",
          "name": "newRarity",
          "type": "uint8"
        },
        {
          "indexed": false,
          "internalType": "string",
          "name": "newName",
          "type": "string"
        }
      ],
      "name": "BlocknogotchiEvolved",
      "type": "event"
    },
    {
      "anonymous": false,
      "inputs": [
        {
          "indexed": true,
          "internalType": "uint256",
          "name": "tokenId",
          "type": "uint256"
        },
        {
          "indexed": false,
          "internalType": "uint8",
          "name": "newLevel",
          "type": "uint8"
        }
      ],
      "name": "BlocknogotchiLeveledUp",
      "type": "event"
    },
    {
      "anonymous": false,
      "inputs": [
        {
          "indexed": true,
          "internalType": "uint256",
          "name": "tokenId",
          "type": "uint256"
        },
        {
          "indexed": false,
          "internalType": "uint256",
          "name": "amount",
          "type": "uint256"
        }
      ],
      "name": "ExperienceGained",
      "type": "event"
    },
    {
      "anonymous": false,
      "inputs": [
        {
          "indexed": false,
          "internalType": "uint256",
          "name": "_tokenId",
          "type": "uint256"
        }
      ],
      "name": "MetadataUpdate",
      "type": "event"
    },
    {
      "anonymous": false,
      "inputs": [
        {
          "indexed": true,
          "internalType": "address",
          "name": "previousOwner",
          "type": "address"
        },
        {
          "indexed": true,
          "internalType": "address",
          "name": "newOwner",
          "type": "address"
        }
      ],
      "name": "OwnershipTransferred",
      "type": "event"
    },
    {
      "anonymous": false,
      "inputs": [
        {
          "indexed": true,
          "internalType": "address",
          "name": "from",
          "type": "address"
        },
        {
          "indexed": true,
          "internalType": "address",
          "name": "to",
          "type": "address"
        },
        {
          "indexed": true,
          "internalType": "uint256",
          "name": "tokenId",
          "type": "uint256"
        }
      ],
      "name": "Transfer",
      "type": "event"
    },
    {
      "inputs": [
        {
          "internalType": "address",
          "name": "to",
          "type": "address"
        },
        {
          "internalType": "uint256",
          "name": "tokenId",
          "type": "uint256"
        }
      ],
      "name": "approve",
      "outputs": [],
      "stateMutability": "nonpayable",
      "type": "function"
    },
    {
      "inputs": [
        {
          "internalType": "address",
          "name": "owner",
          "type": "address"
        }
      ],
      "name": "balanceOf",
      "outputs": [
        {
          "internalType": "uint256",
          "name": "",
          "type": "uint256"
        }
      ],
      "stateMutability": "view",
      "type": "function"
    },
    {
      "inputs": [],
      "name": "battleOracleAddress",
      "outputs": [
        {
          "internalType": "address",
          "name": "",
          "type": "address"
        }
      ],
      "stateMutability": "view",
      "type": "function"
    },
    {
      "inputs": [
        {
          "internalType": "uint256",
          "name": "",
          "type": "uint256"
        }
      ],
      "name": "blocknogotchis",
      "outputs": [
        {
          "internalType": "string",
          "name": "name",
          "type": "string"
        },
        {
          "internalType": "enum BlocknogotchiContract.Attribute",
          "name": "attribute",
          "type": "uint8"
        },
        {
          "internalType": "enum BlocknogotchiContract.Rarity",
          "name": "rarity",
          "type": "uint8"
        },
        {
          "internalType": "uint8",
          "name": "level",
          "type": "uint8"
        },
        {
          "internalType": "uint256",
          "name": "hp",
          "type": "uint256"
        },
        {
          "internalType": "uint256",
          "name": "baseDamage",
          "type": "uint256"
        },
        {
          "internalType": "uint256",
          "name": "battleCount",
          "type": "uint256"
        },
        {
          "internalType": "uint256",
          "name": "battleWins",
          "type": "uint256"
        },
        {
          "internalType": "uint256",
          "name": "birthTime",
          "type": "uint256"
        },
        {
          "internalType": "uint256",
          "name": "lastBattleTime",
          "type": "uint256"
        },
        {
          "internalType": "bool",
          "name": "claimed",
          "type": "bool"
        },
        {
          "internalType": "uint256",
          "name": "experience",
          "type": "uint256"
        }
      ],
      "stateMutability": "view",
      "type": "function"
    },
    {
      "inputs": [
        {
          "internalType": "uint256",
          "name": "tokenId",
          "type": "uint256"
        }
      ],
      "name": "checkCooldown",
      "outputs": [
        {
          "internalType": "bool",
          "name": "",
          "type": "bool"
        }
      ],
      "stateMutability": "view",
      "type": "function"
    },
    {
      "inputs": [
        {
          "internalType": "uint256",
          "name": "tokenId",
          "type": "uint256"
        }
      ],
      "name": "checkEvolution",
      "outputs": [
        {
          "internalType": "bool",
          "name": "",
          "type": "bool"
        }
      ],
      "stateMutability": "view",
      "type": "function"
    },
    {
      "inputs": [
        {
          "internalType": "bytes32",
          "name": "hash",
          "type": "bytes32"
        }
      ],
      "name": "claimBlocknogotchi",
      "outputs": [],
      "stateMutability": "nonpayable",
      "type": "function"
    },
    {
      "inputs": [
        {
          "internalType": "string",
          "name": "name",
          "type": "string"
        },
        {
          "internalType": "enum BlocknogotchiContract.Attribute",
          "name": "attribute",
          "type": "uint8"
        },
        {
          "internalType": "enum BlocknogotchiContract.Rarity",
          "name": "rarity",
          "type": "uint8"
        },
        {
          "internalType": "string",
          "name": "uri",
          "type": "string"
        }
      ],
      "name": "createBlocknogotchi",
      "outputs": [
        {
          "internalType": "uint256",
          "name": "",
          "type": "uint256"
        }
      ],
      "stateMutability": "nonpayable",
      "type": "function"
    },
    {
      "inputs": [
        {
          "internalType": "uint256",
          "name": "tokenId",
          "type": "uint256"
        },
        {
          "internalType": "string",
          "name": "newName",
          "type": "string"
        },
        {
          "internalType": "string",
          "name": "newUri",
          "type": "string"
        }
      ],
      "name": "evolve",
      "outputs": [],
      "stateMutability": "nonpayable",
      "type": "function"
    },
    {
      "inputs": [
        {
          "internalType": "uint256",
          "name": "tokenId",
          "type": "uint256"
        }
      ],
      "name": "getApproved",
      "outputs": [
        {
          "internalType": "address",
          "name": "",
          "type": "address"
        }
      ],
      "stateMutability": "view",
      "type": "function"
    },
    {
      "inputs": [
        {
          "internalType": "uint256",
          "name": "tokenId",
          "type": "uint256"
        }
      ],
      "name": "getBlocknogotchi",
      "outputs": [
        {
          "internalType": "string",
          "name": "name",
          "type": "string"
        },
        {
          "internalType": "enum BlocknogotchiContract.Attribute",
          "name": "attribute",
          "type": "uint8"
        },
        {
          "internalType": "enum BlocknogotchiContract.Rarity",
          "name": "rarity",
          "type": "uint8"
        },
        {
          "internalType": "uint8",
          "name": "level",
          "type": "uint8"
        },
        {
          "internalType": "uint256",
          "name": "hp",
          "type": "uint256"
        },
        {
          "internalType": "uint256",
          "name": "baseDamage",
          "type": "uint256"
        },
        {
          "internalType": "uint256",
          "name": "battleCount",
          "type": "uint256"
        },
        {
          "internalType": "uint256",
          "name": "battleWins",
          "type": "uint256"
        },
        {
          "internalType": "uint256",
          "name": "birthTime",
          "type": "uint256"
        },
        {
          "internalType": "uint256",
          "name": "lastBattleTime",
          "type": "uint256"
        },
        {
          "internalType": "bool",
          "name": "claimed",
          "type": "bool"
        },
        {
          "internalType": "address",
          "name": "owner",
          "type": "address"
        },
        {
          "internalType": "string",
          "name": "_tokenURI",
          "type": "string"
        },
        {
          "internalType": "uint256",
          "name": "age",
          "type": "uint256"
        },
        {
          "internalType": "uint256",
          "name": "experience",
          "type": "uint256"
        }
      ],
      "stateMutability": "view",
      "type": "function"
    },
    {
      "inputs": [
        {
          "internalType": "uint256",
          "name": "tokenId",
          "type": "uint256"
        }
      ],
      "name": "getClaimHash",
      "outputs": [
        {
          "internalType": "bytes32",
          "name": "",
          "type": "bytes32"
        }
      ],
      "stateMutability": "view",
      "type": "function"
    },
    {
      "inputs": [
        {
          "internalType": "bytes32",
          "name": "hash",
          "type": "bytes32"
        }
      ],
      "name": "getTokenIdFromHash",
      "outputs": [
        {
          "internalType": "uint256",
          "name": "",
          "type": "uint256"
        }
      ],
      "stateMutability": "view",
      "type": "function"
    },
    {
      "inputs": [
        {
          "internalType": "address",
          "name": "owner",
          "type": "address"
        },
        {
          "internalType": "address",
          "name": "operator",
          "type": "address"
        }
      ],
      "name": "isApprovedForAll",
      "outputs": [
        {
          "internalType": "bool",
          "name": "",
          "type": "bool"
        }
      ],
      "stateMutability": "view",
      "type": "function"
    },
    {
      "inputs": [
        {
          "internalType": "uint256",
          "name": "tokenId",
          "type": "uint256"
        }
      ],
      "name": "isBlocknogotchiClaimed",
      "outputs": [
        {
          "internalType": "bool",
          "name": "",
          "type": "bool"
        }
      ],
      "stateMutability": "view",
      "type": "function"
    },
    {
      "inputs": [
        {
          "internalType": "bytes32",
          "name": "hash",
          "type": "bytes32"
        }
      ],
      "name": "isValidClaimHash",
      "outputs": [
        {
          "internalType": "bool",
          "name": "",
          "type": "bool"
        }
      ],
      "stateMutability": "view",
      "type": "function"
    },
    {
      "inputs": [],
      "name": "name",
      "outputs": [
        {
          "internalType": "string",
          "name": "",
          "type": "string"
        }
      ],
      "stateMutability": "view",
      "type": "function"
    },
    {
      "inputs": [],
      "name": "owner",
      "outputs": [
        {
          "internalType": "address",
          "name": "",
          "type": "address"
        }
      ],
      "stateMutability": "view",
      "type": "function"
    },
    {
      "inputs": [
        {
          "internalType": "uint256",
          "name": "tokenId",
          "type": "uint256"
        }
      ],
      "name": "ownerOf",
      "outputs": [
        {
          "internalType": "address",
          "name": "",
          "type": "address"
        }
      ],
      "stateMutability": "view",
      "type": "function"
    },
    {
      "inputs": [
        {
          "internalType": "uint256",
          "name": "winnerTokenId",
          "type": "uint256"
        },
        {
          "internalType": "uint256",
          "name": "loserTokenId",
          "type": "uint256"
        },
        {
          "internalType": "uint256",
          "name": "winnerExperience",
          "type": "uint256"
        },
        {
          "internalType": "uint256",
          "name": "loserExperience",
          "type": "uint256"
        }
      ],
      "name": "recordBattle",
      "outputs": [],
      "stateMutability": "nonpayable",
      "type": "function"
    },
    {
      "inputs": [],
      "name": "renounceOwnership",
      "outputs": [],
      "stateMutability": "nonpayable",
      "type": "function"
    },
    {
      "inputs": [
        {
          "internalType": "address",
          "name": "from",
          "type": "address"
        },
        {
          "internalType": "address",
          "name": "to",
          "type": "address"
        },
        {
          "internalType": "uint256",
          "name": "tokenId",
          "type": "uint256"
        }
      ],
      "name": "safeTransferFrom",
      "outputs": [],
      "stateMutability": "nonpayable",
      "type": "function"
    },
    {
      "inputs": [
        {
          "internalType": "address",
          "name": "from",
          "type": "address"
        },
        {
          "internalType": "address",
          "name": "to",
          "type": "address"
        },
        {
          "internalType": "uint256",
          "name": "tokenId",
          "type": "uint256"
        },
        {
          "internalType": "bytes",
          "name": "data",
          "type": "bytes"
        }
      ],
      "name": "safeTransferFrom",
      "outputs": [],
      "stateMutability": "nonpayable",
      "type": "function"
    },
    {
      "inputs": [
        {
          "internalType": "address",
          "name": "operator",
          "type": "address"
        },
        {
          "internalType": "bool",
          "name": "approved",
          "type": "bool"
        }
      ],
      "name": "setApprovalForAll",
      "outputs": [],
      "stateMutability": "nonpayable",
      "type": "function"
    },
    {
      "inputs": [
        {
          "internalType": "uint256",
          "name": "newCooldown",
          "type": "uint256"
        }
      ],
      "name": "setBattleCooldown",
      "outputs": [],
      "stateMutability": "nonpayable",
      "type": "function"
    },
    {
      "inputs": [
        {
          "internalType": "bytes4",
          "name": "interfaceId",
          "type": "bytes4"
        }
      ],
      "name": "supportsInterface",
      "outputs": [
        {
          "internalType": "bool",
          "name": "",
          "type": "bool"
        }
      ],
      "stateMutability": "view",
      "type": "function"
    },
    {
      "inputs": [],
      "name": "symbol",
      "outputs": [
        {
          "internalType": "string",
          "name": "",
          "type": "string"
        }
      ],
      "stateMutability": "view",
      "type": "function"
    },
    {
      "inputs": [
        {
          "internalType": "uint256",
          "name": "tokenId",
          "type": "uint256"
        }
      ],
      "name": "tokenURI",
      "outputs": [
        {
          "internalType": "string",
          "name": "",
          "type": "string"
        }
      ],
      "stateMutability": "view",
      "type": "function"
    },
    {
      "inputs": [
        {
          "internalType": "address",
          "name": "from",
          "type": "address"
        },
        {
          "internalType": "address",
          "name": "to",
          "type": "address"
        },
        {
          "internalType": "uint256",
          "name": "tokenId",
          "type": "uint256"
        }
      ],
      "name": "transferFrom",
      "outputs": [],
      "stateMutability": "nonpayable",
      "type": "function"
    },
    {
      "inputs": [
        {
          "internalType": "address",
          "name": "newOwner",
          "type": "address"
        }
      ],
      "name": "transferOwnership",
      "outputs": [],
      "stateMutability": "nonpayable",
      "type": "function"
    }
  ],
  "bytecode": "0x60806040523461039357604080519081016001600160401b038111828210176102a0576040908152600d82526c426c6f636b6e6f676f7463686960981b602083015280519081016001600160401b038111828210176102a057604052600381526242474360e81b602082015281516001600160401b0381116102a057600054600181811c91168015610389575b602082101461028057601f8111610325575b50602092601f82116001146102c157928192936000926102b6575b50508160011b916000199060031b1c1916176000555b80516001600160401b0381116102a057600154600181811c91168015610296575b602082101461028057601f811161021b575b50602091601f82116001146101b7579181926000926101ac575b50508160011b916000199060031b1c1916176001555b33156101965760078054336001600160a01b03198216811790925560405191906001600160a01b03167f8be0079c531659141344cd1fd0a4f28419497f9722a3daafe3b4186f6b6457e0600080a3601e600955603c600a556122f890816103998239f35b631e4fbdf760e01b600052600060045260246000fd5b01519050388061011c565b601f198216926001600052806000209160005b858110610203575083600195106101ea575b505050811b01600155610132565b015160001960f88460031b161c191690553880806101dc565b919260206001819286850151815501940192016101ca565b60016000527fb10e2d527612073b26eecdfd717e6a320cf44b4afac2b0732d9fcbe2b7fa0cf6601f830160051c81019160208410610276575b601f0160051c01905b81811061026a5750610102565b6000815560010161025d565b9091508190610254565b634e487b7160e01b600052602260045260246000fd5b90607f16906100f0565b634e487b7160e01b600052604160045260246000fd5b0151905038806100b9565b601f1982169360008052806000209160005b86811061030d57508360019596106102f4575b505050811b016000556100cf565b015160001960f88460031b161c191690553880806102e6565b919260206001819286850151815501940192016102d3565b600080527f290decd9548b62a8d60345a988386fc84ba6bc95484008f6362f93160ef3e563601f830160051c8101916020841061037f575b601f0160051c01905b818110610373575061009e565b60008155600101610366565b909150819061035d565b90607f169061008c565b600080fdfe608080604052600436101561001357600080fd5b60003560e01c90816301ffc9a71461176f5750806306fdde03146116ca578063081812fc1461168c578063095ea7b31461159d5780630d029293146111b4578063153985f014610e8b57806323b872dd14610e7457806342842e0e14610e44578063611d8c0614610df25780636352211e14610dc257806364a291aa14610da157806367549dd914610cc9578063707ca4af14610c9157806370a0823114610c3b578063715018a614610bde578063790cb96614610ba05780637a89abae14610a7b578063877bcc7b146106e25780638da5cb5b146106b9578063921d08af1461053d57806395d89b41146104705780639dae9dd914610448578063a22cb4651461039e578063b88d4fde14610331578063c87b56dd146102fa578063d4cebef1146102d1578063e985e9c514610276578063ea924dec1461024a578063ecb984e9146101f85763f2fde38b1461016957600080fd5b346101f35760203660031901126101f35761018261183c565b61018a611d7c565b6001600160a01b031680156101dd57600780546001600160a01b0319811683179091556001600160a01b03167f8be0079c531659141344cd1fd0a4f28419497f9722a3daafe3b4186f6b6457e0600080a3005b631e4fbdf760e01b600052600060045260246000fd5b600080fd5b346101f35760203660031901126101f3576004358015158061023e575b61021e90611c46565b600052600c602052602060ff600860406000200154166040519015158152f35b50600854811115610215565b346101f35760203660031901126101f357600435600052600f6020526020604060002054604051908152f35b346101f35760403660031901126101f35761028f61183c565b610297611852565b9060018060a01b0316600052600560205260406000209060018060a01b0316600052602052602060ff604060002054166040519015158152f35b346101f35760003660031901126101f357600b546040516001600160a01b039091168152602090f35b346101f35760203660031901126101f35761032d61031960043561228f565b604051918291602083526020830190611817565b0390f35b346101f35760803660031901126101f35761034a61183c565b610352611852565b90604435606435926001600160401b0384116101f357366023850112156101f35761038a61039c9436906024816004013591016118a4565b92610396838383611ab6565b33612152565b005b346101f35760403660031901126101f3576103b761183c565b60243590811515908183036101f3576001600160a01b0316918215610433576104059033600052600560205260406000208460005260205260406000209060ff801983541691151516179055565b6040519081527f17307eab39ab6107e8899845ad3d59bd9653f200f220920489ca2b5937696c3160203392a3005b82630b61174360e31b60005260045260246000fd5b346101f35760203660031901126101f3576020610466600435611cec565b6040519015158152f35b346101f35760003660031901126101f357604051600060015461049281611933565b808452906001811690811561051957506001146104ba575b61032d8361031981850382611868565b600160009081527fb10e2d527612073b26eecdfd717e6a320cf44b4afac2b0732d9fcbe2b7fa0cf6939250905b8082106104ff575090915081016020016103196104aa565b9192600181602092548385880101520191019092916104e7565b60ff191660208086019190915291151560051b8401909101915061031990506104aa565b346101f35760203660031901126101f357600435801515806106ad575b61056390611c46565b80600052600c602052604060002090600060ff600884015416928361069c575b600681015460009281610674575b60018301549060028401549660038501549660048601549460058701546007880154926105bd90612092565b966009890154986105cd9061196d565b9a6040519c8d809d6101e082526101e082016105e891611817565b996105f96020830160ff8316611a11565b61060d6040830160ff600884901c16611a1e565b60101c60ff166060919091015260808d015260a08c015260c08b015260e08a015261010089015261012088015215156101408701526001600160a01b031661016086015284810361018086015261066391611817565b916101a08401526101c08301520390f35b92508042034281116106865792610591565b634e487b7160e01b600052601160045260246000fd5b90506106a782611d45565b90610583565b5060085481111561055a565b346101f35760003660031901126101f3576007546040516001600160a01b039091168152602090f35b346101f35760603660031901126101f3576004356024356001600160401b0381116101f3576107159036906004016118db565b906044356001600160401b0381116101f3576107359036906004016118db565b9181151580610a6f575b61074890611c46565b61076b82600052600c60205260ff60016040600020015460101c16600954111590565b15610a1e5781600052600c602052604060002092600184019060ff825460081c16946005861015610a085760048610156109b05760ff6107ac600097611cda565b16600581101561099c576107c09084611a4b565b60028101805490600a820180921161098857556003810180549060028201809211610988575583516001600160401b038111610974576108008254611933565b601f811161092f575b506020601f821160011461089f579361086b7fb8fdc5e79a3a23833c4ae5c4376d99af4b2bc0ebf1a18abb121e12c1f6a9e50a969461088e948460ff9561087d998d91610894575b508160011b916000199060031b1c19161790555b88611da5565b5460081c169160405193848094611a1e565b604060208401526040830190611817565b0390a280f35b90508801518d610851565b82885280882090601f198316895b81811061091757509461088e9460018561087d999561086b9560ff987fb8fdc5e79a3a23833c4ae5c4376d99af4b2bc0ebf1a18abb121e12c1f6a9e50a9d9b106108fe575b5050811b019055610865565b8a015160001960f88460031b161c191690558d806108f2565b9192602060018192868c0151815501940192016108ad565b82885260208820601f830160051c8101916020841061096a575b601f0160051c01905b81811061095f5750610809565b888155600101610952565b9091508190610949565b634e487b7160e01b87526041600452602487fd5b634e487b7160e01b88526011600452602488fd5b634e487b7160e01b87526021600452602487fd5b60405162461bcd60e51b815260206004820152602a60248201527f426c6f636b6e6f676f7463686920697320616c7265616479206174206d6178696044820152696d756d2072617269747960b01b6064820152608490fd5b634e487b7160e01b600052602160045260246000fd5b60405162461bcd60e51b8152602060048201526024808201527f426c6f636b6e6f676f74636869206973206e6f7420726561647920746f2065766044820152636f6c766560e01b6064820152608490fd5b5060085482111561073f565b346101f35760803660031901126101f35760043560243581600052600c602052610aaf60ff60086040600020015416611c92565b80600052600c602052610acc60ff60086040600020015416611c92565b81600052600c602052604060002081600052600c602052604060002090600481018054906001820180921161068657556005810180549060018201809211610686575560074291015560048101805490600182018092116106865755600742910155610b3a60443583611f16565b610b4660643582611f16565b80827f7cd054335bb55bb2638e23a495f06dbb0d3aa3d9f4e43d3eff6f36635a47b9e6602060405160018152a37f7cd054335bb55bb2638e23a495f06dbb0d3aa3d9f4e43d3eff6f36635a47b9e6602060405160008152a3005b346101f35760203660031901126101f357600435600052600c6020526020610bd3600760406000200154600a5490611a2b565b421015604051908152f35b346101f35760003660031901126101f357610bf7611d7c565b600780546001600160a01b031981169091556000906001600160a01b03167f8be0079c531659141344cd1fd0a4f28419497f9722a3daafe3b4186f6b6457e08280a3005b346101f35760203660031901126101f3576001600160a01b03610c5c61183c565b168015610c7b5760005260036020526020604060002054604051908152f35b6322718ad960e21b600052600060045260246000fd5b346101f35760203660031901126101f3576020610466600435600052600c60205260ff60016040600020015460101c16600954111590565b346101f35760203660031901126101f357600435600052600c602052610d446040600020610cf68161196d565b90600181015490600281015490600381015460048201546005830154600684015491600785015493600960ff6008880154169601549660ff6040519b8c9b6101808d526101808d0190611817565b99610d5460208d01838316611a11565b610d6660408d01838360081c16611a1e565b60101c1660608b015260808a015260a089015260c088015260e087015261010086015261012085015215156101408401526101608301520390f35b346101f35760203660031901126101f357610dba611d7c565b600435600a55005b346101f35760203660031901126101f3576020610de0600435611d45565b6040516001600160a01b039091168152f35b346101f35760203660031901126101f357600435610e0e611d7c565b80151580610e38575b610e2090611c46565b600052600e6020526020604060002054604051908152f35b50600854811115610e17565b346101f35761039c610e55366118f9565b9060405192610e65602085611868565b60008452610396838383611ab6565b346101f35761039c610e85366118f9565b91611ab6565b346101f35760203660031901126101f35760043580600052600d602052610eba60ff6040600020541615611a6a565b80600052600f60205260406000205490610ed381611cec565b156111805781600052600c602052610ef660ff6008604060002001541615611a6a565b600052600d6020526040600020600160ff1982541617905580600052600c6020526008604060002001600160ff1982541617905580600052600c60205242600660406000200155602090604051610f4d8382611868565b60008152331561116a5760008281526002845260408120546001600160a01b031680151591849083611136575b338082526003885260408083208054600101905583835260028952822080546001600160a01b031916821790559083907fddf252ad1be2c89b69c2b068fc378daa952ba7f163c4a11628f55a4df523b3ef9080a45061112057333b611004575b5033907ff1d52d8e0f056ab2de6ad624815ff225ff815dcbcc0bc3da3f5474db206fd1d8600080a3005b8261103e9160405180938192630a85bd0160e11b835233600484015260006024840152866044840152608060648401526084830190611817565b03816000335af180916000916110db575b50906110a557823d1561109e573d61106681611889565b906110746040519283611868565b81523d60008383013e5b8051918261109b57633250574960e11b6000523360045260246000fd5b01fd5b606061107e565b9091506001600160e01b03191663757a42ff60e11b016110c6578082610fda565b633250574960e11b6000523360045260246000fd5b8481813d8311611119575b6110f08183611868565b810103126111155751906001600160e01b03198216820361111257508461104f565b80fd5b5080fd5b503d6110e6565b6339e3563760e11b600052600060045260246000fd5b600082815260046020526040902080546001600160a01b031916905582815260038752604081208054600019019055610f7a565b633250574960e11b600052600060045260246000fd5b60405162461bcd60e51b815260206004820152600c60248201526b092dcecc2d8d2c840d0c2e6d60a31b6044820152606490fd5b346101f35760803660031901126101f3576004356001600160401b0381116101f3576111e49036906004016118db565b60243560088110156101f35760443560058110156101f3576064356001600160401b0381116101f35761121b9036906004016118db565b90611224611d7c565b60085493600185018511610686576001850160085560001943014381116106865760405160208101916001880183524260408301523360601b606083015240607482015260748152611277609482611868565b5190209160008160021b82159083810460041482171561158957601e019182601e1161157557508260011b908382046002141715610686576005019182600511610686576040519361018085018581106001600160401b0382111761155f5760405284526000966020850152604084015260016060840152608083015260a08201528360c08201528360e082015283610100820152836101208201528361014082015283610160820152600185018452600c602052604084209080518051906001600160401b0382116109745781906113508554611933565b601f8111611512575b50602090601f83116001146114af5788926114a4575b50508160011b916000199060031b1c19161782555b600182016020820151600881101561099c5760ff801983541691161781556040820151600581101561099c57926009610160600197946113ec856113cf6114749960209e9b98611a4b565b6060830151815462ff0000191660109190911b62ff000016179055565b6080810151600285015560a0810151600385015560c0810151600485015560e081015160058501556101008101516006850155610120810151600785015561144a6101408201511515600886019060ff801983541691151516179055565b01519101558484018652600e87528060408720558552600f86528383016040862055838301611da5565b604051927f4db75de357802b61b3e705e0ce9baaad51f818dae528a4ae6a3f68dfda39786f8383019180a2018152f35b01519050888061136f565b8589528189209250601f198416895b8181106114fa57509084600195949392106114e1575b505050811b018255611384565b015160001960f88460031b161c191690558880806114d4565b929360206001819287860151815501950193016114be565b90915084885260208820601f840160051c810160208510611558575b90849392915b601f830160051c8201811061154a575050611359565b8a8155859450600101611534565b508061152e565b634e487b7160e01b600052604160045260246000fd5b634e487b7160e01b81526011600452602490fd5b634e487b7160e01b83526011600452602483fd5b346101f35760403660031901126101f3576115b661183c565b6024356115c281611d45565b33151580611679575b8061164b575b6116365781906001600160a01b0384811691167f8c5be1e5ebec7d5bd14f71427d1e84f3dd0314c0f7b2291e5b200ac8c7c3b925600080a4600090815260046020526040902080546001600160a01b0319166001600160a01b03909216919091179055005b63a9fbf51f60e01b6000523360045260246000fd5b506001600160a01b038116600090815260056020908152604080832033845290915290205460ff16156115d1565b506001600160a01b0381163314156115cb565b346101f35760203660031901126101f3576004356116a981611d45565b506000526004602052602060018060a01b0360406000205416604051908152f35b346101f35760003660031901126101f357604051600080546116eb81611933565b808452906001811690811561051957506001146117125761032d8361031981850382611868565b60008080527f290decd9548b62a8d60345a988386fc84ba6bc95484008f6362f93160ef3e563939250905b808210611755575090915081016020016103196104aa565b91926001816020925483858801015201910190929161173d565b346101f35760203660031901126101f3576004359063ffffffff60e01b82168092036101f357602091632483248360e11b81149081156117b1575b5015158152f35b6380ac58cd60e01b8114915081156117e3575b81156117d2575b50836117aa565b6301ffc9a760e01b149050836117cb565b635b5e139f60e01b811491506117c4565b60005b8381106118075750506000910152565b81810151838201526020016117f7565b90602091611830815180928185528580860191016117f4565b601f01601f1916010190565b600435906001600160a01b03821682036101f357565b602435906001600160a01b03821682036101f357565b90601f801991011681019081106001600160401b0382111761155f57604052565b6001600160401b03811161155f57601f01601f191660200190565b9291926118b082611889565b916118be6040519384611868565b8294818452818301116101f3578281602093846000960137010152565b9080601f830112156101f3578160206118f6933591016118a4565b90565b60609060031901126101f3576004356001600160a01b03811681036101f357906024356001600160a01b03811681036101f3579060443590565b90600182811c92168015611963575b602083101461194d57565b634e487b7160e01b600052602260045260246000fd5b91607f1691611942565b906040519182600082549261198184611933565b80845293600181169081156119ef57506001146119a8575b506119a692500383611868565b565b90506000929192526020600020906000915b8183106119d35750509060206119a69282010138611999565b60209193508060019154838589010152019101909184926119ba565b9050602092506119a694915060ff191682840152151560051b82010138611999565b906008821015610a085752565b906005821015610a085752565b9190820180921161068657565b8181029291811591840414171561068657565b906005811015610a085761ff0082549160081b169061ff001916179055565b15611a7157565b60405162461bcd60e51b815260206004820152601d60248201527f426c6f636b6e6f676f7463686920616c726561647920636c61696d65640000006044820152606490fd5b6001600160a01b039091169190821561116a576000828152600260205260408120546001600160a01b0316938391859033151580611bae575b507fddf252ad1be2c89b69c2b068fc378daa952ba7f163c4a11628f55a4df523b3ef9082611b79575b838152600360209081526040808320805460010190558683526002909152812080546001600160a01b0319168517905580a46001600160a01b0316808303611b5f57505050565b6364283d7b60e01b60005260045260245260445260646000fd5b600085815260046020526040902080546001600160a01b03191690558281526003602052604081208054600019019055611b18565b915091925080611bf7575b15611bc8579084849238611aef565b839085611be157602491637e27328960e01b8252600452fd5b60449163177e802f60e01b825233600452602452fd5b503385148015611c25575b80611bb95750838152600460205260408120546001600160a01b03163314611bb9565b5084815260056020908152604080832033845290915281205460ff16611c02565b15611c4d57565b60405162461bcd60e51b815260206004820152601b60248201527f426c6f636b6e6f676f7463686920646f65736e277420657869737400000000006044820152606490fd5b15611c9957565b60405162461bcd60e51b8152602060048201526019602482015278109b1bd8dadb9bd9dbdd18da1a481b9bdd0818db185a5b5959603a1b6044820152606490fd5b60ff60019116019060ff821161068657565b80600052600f6020526040600020548015159182611d29575b5081611d0f575090565b9050600052600c60205260ff600860406000200154161590565b909150600052600d60205260ff60406000205416159038611d05565b6000818152600260205260409020546001600160a01b0316908115611d68575090565b637e27328960e01b60005260045260246000fd5b6007546001600160a01b03163303611d9057565b63118cdaa760e01b6000523360045260246000fd5b919091806000526006602052604060002083516001600160401b03811161155f57611dd08254611933565b601f8111611ece575b506020601f8211600114611e4257908060209493927ff8e1a15aba9398e019f0b49df1a4fde98ee17ae345cb5f6b5e2c27f5033e8ce79697600092611e37575b50508160011b916000199060031b1c19161790555b604051908152a1565b015190503880611e19565b601f1982169583600052816000209660005b818110611eb6575096600192849260209796957ff8e1a15aba9398e019f0b49df1a4fde98ee17ae345cb5f6b5e2c27f5033e8ce7999a10611e9d575b505050811b019055611e2e565b015160001960f88460031b161c19169055388080611e90565b83830151895560019098019760209384019301611e54565b826000526020600020601f830160051c81019160208410611f0c575b601f0160051c01905b818110611f005750611dd9565b60008155600101611ef3565b9091508190611eea565b9081600052600c6020526040600020611f4560ff606460098401611f3b868254611a2b565b8091550416611cda565b606460ff82161161208a575b6001820180549260ff8460101c169360ff841694808611611fa0575b50505050505060207f187629ed10c63608fdbe3ae566e392f60bfa2a349ba31cd2ccb14f116c7be85b91604051908152a2565b859694950360ff81116106865760ff8260081c166005811015610a0857600201918260021161068657611fd960ff607f93169384611a38565b611fe860028601918254611a2b565b905560091c1660010195866001116106865761207960209689957fbd4711215407a83cf1e9c42d9459e67ca4fab330fd585d6feec5df012e14be479561205f60036120557f187629ed10c63608fdbe3ae566e392f60bfa2a349ba31cd2ccb14f116c7be85b9d8d99611a38565b9201918254611a2b565b90559062ff000082549160101b169062ff00001916179055565b604051908152a29138808080611f6d565b506064611f51565b6040519063c87b56dd60e01b82526004820152600081602481305afa600091816120d2575b506118f657506040516120cb602082611868565b6000815290565b90913d8082843e6120e38184611868565b820191602081840312611115578051906001600160401b03821161214e570182601f820112156111155780519161211983611889565b936121276040519586611868565b8385526020848401011161111257509061214791602080850191016117f4565b90386120b7565b8280fd5b823b612160575b5050505050565b604051630a85bd0160e11b81526001600160a01b0391821660048201529181166024830152604482019390935260806064820152911691602090829081906121ac906084830190611817565b03816000865af1809160009161224c575b509061221657503d1561220f573d6121d481611889565b906121e26040519283611868565b81523d6000602083013e5b8051908161220a5782633250574960e11b60005260045260246000fd5b602001fd5b60606121ed565b6001600160e01b03191663757a42ff60e11b0161223857503880808080612159565b633250574960e11b60005260045260246000fd5b6020813d602011612287575b8161226560209383611868565b810103126111155751906001600160e01b0319821682036111125750386121bd565b3d9150612258565b61229881611d45565b5060005260066020526122ae604060002061196d565b60006040516122be602082611868565b529056fea2646970667358221220cd334120bfcb5b72b491b2bfbf8c6bfbb3e8b3b8a0a9ffdcd14d80cdae1eb08a64736f6c634300081a0033",
  "linkReferences": {},
  "deployedLinkReferences": {}
}