{
  "_format": "hh-sol-artifact-1",
  "contractName": "Blocknogotchi",
  "sourceName": "contracts/Blocknogotchi.sol",
  "abi": [
    {
      "inputs": [],
      "stateMutability": "nonpayable",
      "type": "constructor"
    },
    {
      "inputs": [
        {
          "internalType": "address",
          "name": "sender",
          "type": "address"
        },
        {
          "internalType": "uint256",
          "name": "tokenId",
          "type": "uint256"
        },
        {
          "internalType": "address",
          "name": "owner",
          "type": "address"
        }
      ],
      "name": "ERC721IncorrectOwner",
      "type": "error"
    },
    {
      "inputs": [
        {
          "internalType": "address",
          "name": "operator",
          "type": "address"
        },
        {
          "internalType": "uint256",
          "name": "tokenId",
          "type": "uint256"
        }
      ],
      "name": "ERC721InsufficientApproval",
      "type": "error"
    },
    {
      "inputs": [
        {
          "internalType": "address",
          "name": "approver",
          "type": "address"
        }
      ],
      "name": "ERC721InvalidApprover",
      "type": "error"
    },
    {
      "inputs": [
        {
          "internalType": "address",
          "name": "operator",
          "type": "address"
        }
      ],
      "name": "ERC721InvalidOperator",
      "type": "error"
    },
    {
      "inputs": [
        {
          "internalType": "address",
          "name": "owner",
          "type": "address"
        }
      ],
      "name": "ERC721InvalidOwner",
      "type": "error"
    },
    {
      "inputs": [
        {
          "internalType": "address",
          "name": "receiver",
          "type": "address"
        }
      ],
      "name": "ERC721InvalidReceiver",
      "type": "error"
    },
    {
      "inputs": [
        {
          "internalType": "address",
          "name": "sender",
          "type": "address"
        }
      ],
      "name": "ERC721InvalidSender",
      "type": "error"
    },
    {
      "inputs": [
        {
          "internalType": "uint256",
          "name": "tokenId",
          "type": "uint256"
        }
      ],
      "name": "ERC721NonexistentToken",
      "type": "error"
    },
    {
      "inputs": [
        {
          "internalType": "address",
          "name": "owner",
          "type": "address"
        }
      ],
      "name": "OwnableInvalidOwner",
      "type": "error"
    },
    {
      "inputs": [
        {
          "internalType": "address",
          "name": "account",
          "type": "address"
        }
      ],
      "name": "OwnableUnauthorizedAccount",
      "type": "error"
    },
    {
      "anonymous": false,
      "inputs": [
        {
          "indexed": true,
          "internalType": "address",
          "name": "owner",
          "type": "address"
        },
        {
          "indexed": true,
          "internalType": "address",
          "name": "approved",
          "type": "address"
        },
        {
          "indexed": true,
          "internalType": "uint256",
          "name": "tokenId",
          "type": "uint256"
        }
      ],
      "name": "Approval",
      "type": "event"
    },
    {
      "anonymous": false,
      "inputs": [
        {
          "indexed": true,
          "internalType": "address",
          "name": "owner",
          "type": "address"
        },
        {
          "indexed": true,
          "internalType": "address",
          "name": "operator",
          "type": "address"
        },
        {
          "indexed": false,
          "internalType": "bool",
          "name": "approved",
          "type": "bool"
        }
      ],
      "name": "ApprovalForAll",
      "type": "event"
    },
    {
      "anonymous": false,
      "inputs": [
        {
          "indexed": false,
          "internalType": "uint256",
          "name": "_fromTokenId",
          "type": "uint256"
        },
        {
          "indexed": false,
          "internalType": "uint256",
          "name": "_toTokenId",
          "type": "uint256"
        }
      ],
      "name": "BatchMetadataUpdate",
      "type": "event"
    },
    {
      "anonymous": false,
      "inputs": [
        {
          "indexed": false,
          "internalType": "uint256",
          "name": "_tokenId",
          "type": "uint256"
        }
      ],
      "name": "MetadataUpdate",
      "type": "event"
    },
    {
      "anonymous": false,
      "inputs": [
        {
          "indexed": true,
          "internalType": "address",
          "name": "previousOwner",
          "type": "address"
        },
        {
          "indexed": true,
          "internalType": "address",
          "name": "newOwner",
          "type": "address"
        }
      ],
      "name": "OwnershipTransferred",
      "type": "event"
    },
    {
      "anonymous": false,
      "inputs": [
        {
          "indexed": true,
          "internalType": "uint256",
          "name": "tokenId",
          "type": "uint256"
        },
        {
          "indexed": true,
          "internalType": "address",
          "name": "claimer",
          "type": "address"
        }
      ],
      "name": "PetClaimed",
      "type": "event"
    },
    {
      "anonymous": false,
      "inputs": [
        {
          "indexed": true,
          "internalType": "uint256",
          "name": "tokenId",
          "type": "uint256"
        },
        {
          "indexed": false,
          "internalType": "bytes32",
          "name": "claimHash",
          "type": "bytes32"
        }
      ],
      "name": "PetCreated",
      "type": "event"
    },
    {
      "anonymous": false,
      "inputs": [
        {
          "indexed": true,
          "internalType": "uint256",
          "name": "tokenId",
          "type": "uint256"
        },
        {
          "indexed": false,
          "internalType": "uint8",
          "name": "newStage",
          "type": "uint8"
        }
      ],
      "name": "PetEvolved",
      "type": "event"
    },
    {
      "anonymous": false,
      "inputs": [
        {
          "indexed": true,
          "internalType": "uint256",
          "name": "tokenId",
          "type": "uint256"
        },
        {
          "indexed": false,
          "internalType": "uint256",
          "name": "newHunger",
          "type": "uint256"
        }
      ],
      "name": "PetFed",
      "type": "event"
    },
    {
      "anonymous": false,
      "inputs": [
        {
          "indexed": true,
          "internalType": "uint256",
          "name": "tokenId",
          "type": "uint256"
        },
        {
          "indexed": false,
          "internalType": "uint256",
          "name": "newHealth",
          "type": "uint256"
        }
      ],
      "name": "PetHealed",
      "type": "event"
    },
    {
      "anonymous": false,
      "inputs": [
        {
          "indexed": true,
          "internalType": "uint256",
          "name": "tokenId",
          "type": "uint256"
        },
        {
          "indexed": false,
          "internalType": "uint256",
          "name": "newHappiness",
          "type": "uint256"
        }
      ],
      "name": "PetPlayed",
      "type": "event"
    },
    {
      "anonymous": false,
      "inputs": [
        {
          "indexed": true,
          "internalType": "uint256",
          "name": "tokenId",
          "type": "uint256"
        },
        {
          "indexed": false,
          "internalType": "bool",
          "name": "isSleeping",
          "type": "bool"
        }
      ],
      "name": "PetSleepStatusChanged",
      "type": "event"
    },
    {
      "anonymous": false,
      "inputs": [
        {
          "indexed": true,
          "internalType": "address",
          "name": "from",
          "type": "address"
        },
        {
          "indexed": true,
          "internalType": "address",
          "name": "to",
          "type": "address"
        },
        {
          "indexed": true,
          "internalType": "uint256",
          "name": "tokenId",
          "type": "uint256"
        }
      ],
      "name": "Transfer",
      "type": "event"
    },
    {
      "inputs": [
        {
          "internalType": "address",
          "name": "to",
          "type": "address"
        },
        {
          "internalType": "uint256",
          "name": "tokenId",
          "type": "uint256"
        }
      ],
      "name": "approve",
      "outputs": [],
      "stateMutability": "nonpayable",
      "type": "function"
    },
    {
      "inputs": [
        {
          "internalType": "address",
          "name": "owner",
          "type": "address"
        }
      ],
      "name": "balanceOf",
      "outputs": [
        {
          "internalType": "uint256",
          "name": "",
          "type": "uint256"
        }
      ],
      "stateMutability": "view",
      "type": "function"
    },
    {
      "inputs": [
        {
          "internalType": "bytes32",
          "name": "hash",
          "type": "bytes32"
        }
      ],
      "name": "claimPet",
      "outputs": [],
      "stateMutability": "nonpayable",
      "type": "function"
    },
    {
      "inputs": [
        {
          "internalType": "string",
          "name": "name",
          "type": "string"
        },
        {
          "internalType": "enum Blocknogotchi.Species",
          "name": "species",
          "type": "uint8"
        },
        {
          "internalType": "enum Blocknogotchi.Rarity",
          "name": "rarity",
          "type": "uint8"
        },
        {
          "internalType": "string",
          "name": "uri",
          "type": "string"
        }
      ],
      "name": "createPet",
      "outputs": [
        {
          "internalType": "uint256",
          "name": "",
          "type": "uint256"
        },
        {
          "internalType": "bytes32",
          "name": "",
          "type": "bytes32"
        }
      ],
      "stateMutability": "nonpayable",
      "type": "function"
    },
    {
      "inputs": [
        {
          "internalType": "uint256",
          "name": "tokenId",
          "type": "uint256"
        }
      ],
      "name": "feedPet",
      "outputs": [],
      "stateMutability": "nonpayable",
      "type": "function"
    },
    {
      "inputs": [
        {
          "internalType": "uint256",
          "name": "tokenId",
          "type": "uint256"
        }
      ],
      "name": "getApproved",
      "outputs": [
        {
          "internalType": "address",
          "name": "",
          "type": "address"
        }
      ],
      "stateMutability": "view",
      "type": "function"
    },
    {
      "inputs": [
        {
          "internalType": "uint256",
          "name": "tokenId",
          "type": "uint256"
        }
      ],
      "name": "getPet",
      "outputs": [
        {
          "components": [
            {
              "internalType": "string",
              "name": "name",
              "type": "string"
            },
            {
              "internalType": "enum Blocknogotchi.Species",
              "name": "species",
              "type": "uint8"
            },
            {
              "internalType": "enum Blocknogotchi.Rarity",
              "name": "rarity",
              "type": "uint8"
            },
            {
              "internalType": "uint8",
              "name": "stage",
              "type": "uint8"
            },
            {
              "internalType": "uint256",
              "name": "birthTime",
              "type": "uint256"
            },
            {
              "internalType": "uint256",
              "name": "lastCaredTime",
              "type": "uint256"
            },
            {
              "internalType": "uint256",
              "name": "happiness",
              "type": "uint256"
            },
            {
              "internalType": "uint256",
              "name": "hunger",
              "type": "uint256"
            },
            {
              "internalType": "uint256",
              "name": "energy",
              "type": "uint256"
            },
            {
              "internalType": "uint256",
              "name": "health",
              "type": "uint256"
            },
            {
              "internalType": "bool",
              "name": "isSick",
              "type": "bool"
            },
            {
              "internalType": "bool",
              "name": "isSleeping",
              "type": "bool"
            },
            {
              "internalType": "bool",
              "name": "claimed",
              "type": "bool"
            },
            {
              "internalType": "address",
              "name": "owner",
              "type": "address"
            },
            {
              "internalType": "string",
              "name": "tokenURI",
              "type": "string"
            },
            {
              "internalType": "uint256",
              "name": "age",
              "type": "uint256"
            }
          ],
          "internalType": "struct Blocknogotchi.PetData",
          "name": "",
          "type": "tuple"
        }
      ],
      "stateMutability": "view",
      "type": "function"
    },
    {
      "inputs": [
        {
          "internalType": "uint256",
          "name": "tokenId",
          "type": "uint256"
        }
      ],
      "name": "healPet",
      "outputs": [],
      "stateMutability": "nonpayable",
      "type": "function"
    },
    {
      "inputs": [
        {
          "internalType": "address",
          "name": "owner",
          "type": "address"
        },
        {
          "internalType": "address",
          "name": "operator",
          "type": "address"
        }
      ],
      "name": "isApprovedForAll",
      "outputs": [
        {
          "internalType": "bool",
          "name": "",
          "type": "bool"
        }
      ],
      "stateMutability": "view",
      "type": "function"
    },
    {
      "inputs": [
        {
          "internalType": "uint256",
          "name": "tokenId",
          "type": "uint256"
        }
      ],
      "name": "isPetClaimed",
      "outputs": [
        {
          "internalType": "bool",
          "name": "",
          "type": "bool"
        }
      ],
      "stateMutability": "view",
      "type": "function"
    },
    {
      "inputs": [],
      "name": "name",
      "outputs": [
        {
          "internalType": "string",
          "name": "",
          "type": "string"
        }
      ],
      "stateMutability": "view",
      "type": "function"
    },
    {
      "inputs": [],
      "name": "owner",
      "outputs": [
        {
          "internalType": "address",
          "name": "",
          "type": "address"
        }
      ],
      "stateMutability": "view",
      "type": "function"
    },
    {
      "inputs": [
        {
          "internalType": "uint256",
          "name": "tokenId",
          "type": "uint256"
        }
      ],
      "name": "ownerOf",
      "outputs": [
        {
          "internalType": "address",
          "name": "",
          "type": "address"
        }
      ],
      "stateMutability": "view",
      "type": "function"
    },
    {
      "inputs": [
        {
          "internalType": "uint256",
          "name": "",
          "type": "uint256"
        }
      ],
      "name": "pets",
      "outputs": [
        {
          "internalType": "string",
          "name": "name",
          "type": "string"
        },
        {
          "internalType": "enum Blocknogotchi.Species",
          "name": "species",
          "type": "uint8"
        },
        {
          "internalType": "enum Blocknogotchi.Rarity",
          "name": "rarity",
          "type": "uint8"
        },
        {
          "internalType": "uint8",
          "name": "stage",
          "type": "uint8"
        },
        {
          "internalType": "uint256",
          "name": "birthTime",
          "type": "uint256"
        },
        {
          "internalType": "uint256",
          "name": "lastCaredTime",
          "type": "uint256"
        },
        {
          "internalType": "uint256",
          "name": "happiness",
          "type": "uint256"
        },
        {
          "internalType": "uint256",
          "name": "hunger",
          "type": "uint256"
        },
        {
          "internalType": "uint256",
          "name": "energy",
          "type": "uint256"
        },
        {
          "internalType": "uint256",
          "name": "health",
          "type": "uint256"
        },
        {
          "internalType": "bool",
          "name": "isSick",
          "type": "bool"
        },
        {
          "internalType": "bool",
          "name": "isSleeping",
          "type": "bool"
        },
        {
          "internalType": "bool",
          "name": "claimed",
          "type": "bool"
        }
      ],
      "stateMutability": "view",
      "type": "function"
    },
    {
      "inputs": [
        {
          "internalType": "uint256",
          "name": "tokenId",
          "type": "uint256"
        }
      ],
      "name": "playWithPet",
      "outputs": [],
      "stateMutability": "nonpayable",
      "type": "function"
    },
    {
      "inputs": [],
      "name": "renounceOwnership",
      "outputs": [],
      "stateMutability": "nonpayable",
      "type": "function"
    },
    {
      "inputs": [
        {
          "internalType": "address",
          "name": "from",
          "type": "address"
        },
        {
          "internalType": "address",
          "name": "to",
          "type": "address"
        },
        {
          "internalType": "uint256",
          "name": "tokenId",
          "type": "uint256"
        }
      ],
      "name": "safeTransferFrom",
      "outputs": [],
      "stateMutability": "nonpayable",
      "type": "function"
    },
    {
      "inputs": [
        {
          "internalType": "address",
          "name": "from",
          "type": "address"
        },
        {
          "internalType": "address",
          "name": "to",
          "type": "address"
        },
        {
          "internalType": "uint256",
          "name": "tokenId",
          "type": "uint256"
        },
        {
          "internalType": "bytes",
          "name": "data",
          "type": "bytes"
        }
      ],
      "name": "safeTransferFrom",
      "outputs": [],
      "stateMutability": "nonpayable",
      "type": "function"
    },
    {
      "inputs": [
        {
          "internalType": "address",
          "name": "operator",
          "type": "address"
        },
        {
          "internalType": "bool",
          "name": "approved",
          "type": "bool"
        }
      ],
      "name": "setApprovalForAll",
      "outputs": [],
      "stateMutability": "nonpayable",
      "type": "function"
    },
    {
      "inputs": [
        {
          "internalType": "bytes4",
          "name": "interfaceId",
          "type": "bytes4"
        }
      ],
      "name": "supportsInterface",
      "outputs": [
        {
          "internalType": "bool",
          "name": "",
          "type": "bool"
        }
      ],
      "stateMutability": "view",
      "type": "function"
    },
    {
      "inputs": [],
      "name": "symbol",
      "outputs": [
        {
          "internalType": "string",
          "name": "",
          "type": "string"
        }
      ],
      "stateMutability": "view",
      "type": "function"
    },
    {
      "inputs": [
        {
          "internalType": "uint256",
          "name": "tokenId",
          "type": "uint256"
        }
      ],
      "name": "toggleSleep",
      "outputs": [],
      "stateMutability": "nonpayable",
      "type": "function"
    },
    {
      "inputs": [
        {
          "internalType": "uint256",
          "name": "tokenId",
          "type": "uint256"
        }
      ],
      "name": "tokenURI",
      "outputs": [
        {
          "internalType": "string",
          "name": "",
          "type": "string"
        }
      ],
      "stateMutability": "view",
      "type": "function"
    },
    {
      "inputs": [
        {
          "internalType": "address",
          "name": "from",
          "type": "address"
        },
        {
          "internalType": "address",
          "name": "to",
          "type": "address"
        },
        {
          "internalType": "uint256",
          "name": "tokenId",
          "type": "uint256"
        }
      ],
      "name": "transferFrom",
      "outputs": [],
      "stateMutability": "nonpayable",
      "type": "function"
    },
    {
      "inputs": [
        {
          "internalType": "address",
          "name": "newOwner",
          "type": "address"
        }
      ],
      "name": "transferOwnership",
      "outputs": [],
      "stateMutability": "nonpayable",
      "type": "function"
    },
    {
      "inputs": [
        {
          "internalType": "bytes32",
          "name": "",
          "type": "bytes32"
        }
      ],
      "name": "usedHashes",
      "outputs": [
        {
          "internalType": "bool",
          "name": "",
          "type": "bool"
        }
      ],
      "stateMutability": "view",
      "type": "function"
    }
  ],
  "bytecode": "0x60806040523461038957604080519081016001600160401b03811182821017610296576040908152600d82526c426c6f636b6e6f676f7463686960981b602083015280519081016001600160401b03811182821017610296576040526003815262424e4760e81b602082015281516001600160401b03811161029657600054600181811c9116801561037f575b602082101461027657601f811161031b575b50602092601f82116001146102b757928192936000926102ac575b50508160011b916000199060031b1c1916176000555b80516001600160401b03811161029657600154600181811c9116801561028c575b602082101461027657601f8111610211575b50602091601f82116001146101ad579181926000926101a2575b50508160011b916000199060031b1c1916176001555b331561018c5760078054336001600160a01b03198216811790925560405191906001600160a01b03167f8be0079c531659141344cd1fd0a4f28419497f9722a3daafe3b4186f6b6457e0600080a3612613908161038f8239f35b631e4fbdf760e01b600052600060045260246000fd5b01519050388061011c565b601f198216926001600052806000209160005b8581106101f9575083600195106101e0575b505050811b01600155610132565b015160001960f88460031b161c191690553880806101d2565b919260206001819286850151815501940192016101c0565b60016000527fb10e2d527612073b26eecdfd717e6a320cf44b4afac2b0732d9fcbe2b7fa0cf6601f830160051c8101916020841061026c575b601f0160051c01905b8181106102605750610102565b60008155600101610253565b909150819061024a565b634e487b7160e01b600052602260045260246000fd5b90607f16906100f0565b634e487b7160e01b600052604160045260246000fd5b0151905038806100b9565b601f1982169360008052806000209160005b86811061030357508360019596106102ea575b505050811b016000556100cf565b015160001960f88460031b161c191690553880806102dc565b919260206001819286850151815501940192016102c9565b600080527f290decd9548b62a8d60345a988386fc84ba6bc95484008f6362f93160ef3e563601f830160051c81019160208410610375575b601f0160051c01905b818110610369575061009e565b6000815560010161035c565b9091508190610353565b90607f169061008c565b600080fdfe60a080604052600436101561001357600080fd5b60003560e01c90816301ffc9a714611ac25750806306fdde0314611a1d578063081812fc146119df578063095ea7b3146118f057806323b872dd146118d957806342842e0e146118a957806347da5f82146116b457806359d55194146112f95780636352211e146112c957806370a0823114611273578063715018a6146112165780637988114214610d2d57806384b9604a14610c155780638da5cb5b14610bec5780639234e0bd14610ace57806395d89b4114610a01578063a22cb46514610957578063aef18bf714610926578063b88d4fde146108b9578063c87b56dd14610882578063cfb869bf1461079a578063d354853e14610745578063df6d38c51461036d578063e985e9c514610312578063f2fde38b146102885763fbfabac41461013d57600080fd5b346102835760203660031901126102835760043561016d61015d8261206b565b6001600160a01b03163314611f46565b80600052600960205261018d60ff60086040600020015460101c16611f86565b8060005260096020526101ae60ff60086040600020015460081c1615611fc8565b6101b7816120a2565b806000526009602052600560406000200154601e8101809111610265576064811161027b575b60008281526009602052604090206005818101839055600490910154908101908110610265577f795acb8635a0c4d472f6899888d91e54613751020a79ee012c4078673acd0f6f916020916064811161025d575b8460005260098352600460406000200155836000526009825242600360406000200155604051908152a2005b506064610231565b634e487b7160e01b600052601160045260246000fd5b5060646101dd565b600080fd5b34610283576020366003190112610283576102a1611b8f565b6102a9612444565b6001600160a01b031680156102fc57600780546001600160a01b0319811683179091556001600160a01b03167f8be0079c531659141344cd1fd0a4f28419497f9722a3daafe3b4186f6b6457e0600080a3005b631e4fbdf760e01b600052600060045260246000fd5b346102835760403660031901126102835761032b611b8f565b610333611ba5565b9060018060a01b0316600052600560205260406000209060018060a01b0316600052602052602060ff604060002054166040519015158152f35b346102835760203660031901126102835760043580600052600a60205260ff6040600020541661070c5760009060006001600854905b8181111561067c575b50501561063d576000908152600a60209081526040808320805460ff19166001179055838352600982529182902060088101805462ff00001916620100001790554260028201819055600390910155905190919061040a8382611c47565b6000815233156106275760008281526002845260408120546001600160a01b0316801515918490836105f3575b338082526003885260408083208054600101905583835260028952822080546001600160a01b031916821790559083907fddf252ad1be2c89b69c2b068fc378daa952ba7f163c4a11628f55a4df523b3ef9080a4506105dd57333b6104c1575b5033907fcb88e0fc88af565c80b376f9c05780aa3ef111e258de98c0ed4962dd5485b415600080a3005b826104fb9160405180938192630a85bd0160e11b835233600484015260006024840152866044840152608060648401526084830190611b6a565b03816000335af18091600091610598575b509061056257823d1561055b573d61052381611c68565b906105316040519283611c47565b81523d60008383013e5b8051918261055857633250574960e11b6000523360045260246000fd5b01fd5b606061053b565b9091506001600160e01b03191663757a42ff60e11b01610583578082610497565b633250574960e11b6000523360045260246000fd5b8481813d83116105d6575b6105ad8183611c47565b810103126105d25751906001600160e01b0319821682036105cf57508461050c565b80fd5b5080fd5b503d6105a3565b6339e3563760e11b600052600060045260246000fd5b600082815260046020526040902080546001600160a01b031916905582815260038752604081208054600019019055610437565b633250574960e11b600052600060045260246000fd5b60405162461bcd60e51b8152602060048201526017602482015276092dcecc2d8d2c840dee440caf0e0d2e4cac840d0c2e6d604b1b6044820152606490fd5b80600052600960205260ff60086040600020015460101c16156106ab575b6000198114610265576001016103a3565b60075460408051602081018481524292820192909252606092831b6bffffffffffffffffffffffff19169281019290925285916106f581607481015b03601f198101835282611c47565b5190200361069a57929350505090600183806103ac565b60405162461bcd60e51b815260206004820152601160248201527012185cda08185b1c9958591e481d5cd959607a1b6044820152606490fd5b34610283576020366003190112610283576004358015158061078e575b61076b90612013565b6000526009602052602060ff60086040600020015460101c166040519015158152f35b50600854811115610762565b3461028357602036600319011261028357600435600052600960205261080e60406000206107c781611d12565b9060ff600182015491600281015490600381015460048201546005830154906006840154926008600786015495015495876040519b8c9b6101a08d526101a08d0190611b6a565b9961081e60208d01838316611bf5565b61083060408d01838360081c16611c02565b60101c1660608b015260808a015260a089015260c088015260e08701526101008601526101208501528181161515610140850152818160081c16151561016085015260101c1615156101808301520390f35b34610283576020366003190112610283576108b56108a16004356125aa565b604051918291602083526020830190611b6a565b0390f35b34610283576080366003190112610283576108d2611b8f565b6108da611ba5565b90604435606435926001600160401b038411610283573660238501121561028357610912610924943690602481600401359101611c83565b9261091e838383611db6565b3361246d565b005b3461028357602036600319011261028357600435600052600a602052602060ff604060002054166040519015158152f35b3461028357604036600319011261028357610970611b8f565b6024359081151590818303610283576001600160a01b03169182156109ec576109be9033600052600560205260406000208460005260205260406000209060ff801983541691151516179055565b6040519081527f17307eab39ab6107e8899845ad3d59bd9653f200f220920489ca2b5937696c3160203392a3005b82630b61174360e31b60005260045260246000fd5b34610283576000366003190112610283576040516000600154610a2381611cd8565b8084529060018116908115610aaa5750600114610a4b575b6108b5836108a181850382611c47565b600160009081527fb10e2d527612073b26eecdfd717e6a320cf44b4afac2b0732d9fcbe2b7fa0cf6939250905b808210610a90575090915081016020016108a1610a3b565b919260018160209254838588010152019101909291610a78565b60ff191660208086019190915291151560051b840190910191506108a19050610a3b565b3461028357602036600319011261028357600435610aee61015d8261206b565b806000526009602052610b0e60ff60086040600020015460101c16611f86565b80600052600960205260ff6008604060002001541615610bb557610b31816120a2565b600081815260096020526040902060088101805460ff1916905560070154601e81019081106102655760648111610bad575b600082815260096020908152604091829020600781018490554260039091015590519182527f87936b36a68838cc414a34318d801667ed4f75223a02fc58030683c3457b535891a2005b506064610b63565b60405162461bcd60e51b815260206004820152600f60248201526e506574206973206e6f74207369636b60881b6044820152606490fd5b34610283576000366003190112610283576007546040516001600160a01b039091168152602090f35b3461028357602036600319011261028357600435610c3561015d8261206b565b806000526009602052610c5560ff60086040600020015460101c16611f86565b610c5e816120a2565b60008181526009602052604090206008908101805461ff0019811690831c60ff90811615841b61ff00169190911791829055911c1615610ce8575b600081815260096020908152604091829020426003820155600890810154925192901c60ff16151582527f2426d5c263699167c1155325cde79b0e1cc70e88eab40b585b6847c9802276a091a2005b806000526009602052600660406000200154603281018091116102655760648111610d25575b816000526009602052600660406000200155610c99565b506064610d0e565b34610283576080366003190112610283576004356001600160401b03811161028357610d5d903690600401611cba565b602435600881101561028357604435916005831015610283576064356001600160401b03811161028357610d95903690600401611cba565b92610d9e612444565b60085492600184018094116102655783600855836040516020810190610ded816106e7334287879160549391835260208301526bffffffffffffffffffffffff199060601b1660408201520190565b5190209360405190610dfe82611c2b565b8152610e0e602082019384612053565b610e1c60408201948561205f565b606081019060018252608081016000815260a082016000815260c083016064815260e084019060648252610100850192606484526101208601946064865261014087019960008b5261016088019860008a5261018089019a60008c526000526009602052604060002098518051906001600160401b038211611200578190610ea48c54611cd8565b601f81116111ad575b50602090601f83116001146111485760009261113d575b50508160011b916000199060031b1c19161789555b60018901915160088110156111275760009d83549051600581101561111257925162ff000060109190911b1661ff00600894851b811660ff94851662ffffff1994909416939093179290921717909355925160028a01559251600389015592516004880155925160058701559251600686015592516007850155955192810180549451151590911b90911661ffff199093169115159094161717825551815462ff0000191690151560101b62ff000016179055828152600660205260408120845190916001600160401b0382116110fe57610fb48354611cd8565b601f81116110b9575b50602090601f831160011461105557906040968361104a575b50508160011b916000199060031b1c19161790555b7ff8e1a15aba9398e019f0b49df1a4fde98ee17ae345cb5f6b5e2c27f5033e8ce760208451848152a1817fe5e623af71a6b5cbbdacae55ccd3f7c20b00276137967ee0520359277ea9f18160208551848152a282519182526020820152f35b015190508680610fd6565b95601f198316848852828820975b8181106110a157509160409791846001959410611088575b505050811b019055610feb565b015160001960f88460031b161c1916905586808061107b565b83830151895560019098019760209384019301611063565b83825260208220601f840160051c810191602085106110f4575b601f0160051c01905b8181106110e95750610fbd565b8281556001016110dc565b90915081906110d3565b634e487b7160e01b81526041600452602490fd5b50634e487b7160e01b8f52602160045260248ffd5b634e487b7160e01b600052602160045260246000fd5b015190503880610ec4565b60008d81528281209350601f198516905b818110611195575090846001959493921061117c575b505050811b018955610ed9565b015160001960f88460031b161c1916905538808061116f565b92936020600181928786015181550195019301611159565b9091508b6000526020600020601f840160051c810191602085106111f6575b90601f859493920160051c01905b8181106111e75750610ead565b600081558493506001016111da565b90915081906111cc565b634e487b7160e01b600052604160045260246000fd5b346102835760003660031901126102835761122f612444565b600780546001600160a01b031981169091556000906001600160a01b03167f8be0079c531659141344cd1fd0a4f28419497f9722a3daafe3b4186f6b6457e08280a3005b34610283576020366003190112610283576001600160a01b03611294611b8f565b1680156112b35760005260036020526020604060002054604051908152f35b6322718ad960e21b600052600060045260246000fd5b346102835760203660031901126102835760206112e760043561206b565b6040516001600160a01b039091168152f35b346102835760203660031901126102835760043560006101e060405161131e81611c0f565b606081528260208201528260408201528260608201528260808201528260a08201528260c08201528260e08201528261010082015282610120820152826101408201528261016082015282610180820152826101a082015260606101c08201520152801515806116a8575b61139290612013565b806000526009602052604060002090604051906113ae82611c2b565b6113b783611d12565b825260018301549060208301936113d160ff841686612053565b83604081016113e660ff8660081c168261205f565b60ff606083019560101c16855260028301549260808301938452600381015460a08401908152600482015460c0850190815260058301549060e0860191825260068401549261010087019384526008600786015495610120890196875201549761014088019660ff8a161515885260ff6101806101608b019a828d60081c1615158c52019a60101c1615159b8c8b5260009c611697575b60009d835180611681575b509e9d9e519d519160088310156111275751906005821015611127576114fd926114d160ff6114f2935116955196519751985199519a519b5115159c5115159d5115159e612384565b9f6040516080526114e3608051611c0f565b60805152602060805101612053565b60406080510161205f565b6060608051015260808051015260a0608051015260c0608051015260e060805101526101006080510152610120608051015261014060805101526101606080510152610180608051015260018060a01b03166101a060805101526101c060805101526101e06080510152604051602081528061166f61158c608051516102006020850152610220840190611b6a565b6115a0602060805101516040850190611bf5565b6115b4604060805101516060850190611c02565b60ff6060608051015116608084015260808051015160a084015260a0608051015160c084015260c0608051015160e084015260e06080510151610100840152610100608051015161012084015261012060805101516101408401526101406080510151151561016084015261016060805101511515610180840152610180608051015115156101a084015260018060a01b036101a06080510151166101c08401526101c06080510151601f19848303016101e0850152611b6a565b6101e060805101516102008301520390f35b909f9e5061168f9042612006565b9d9e38611488565b9b506116a28b61206b565b9b61147d565b50600854811115611389565b34610283576020366003190112610283576004356116d461015d8261206b565b8060005260096020526116f460ff60086040600020015460101c16611f86565b80600052600960205261171560ff60086040600020015460081c1615611fc8565b806000526009602052600a6006604060002001541061186957611737816120a2565b806000526009602052600460406000200154600f81018091116102655760648111611861575b60008281526009602052604090206004810182905560060154600a101561185a578160005260096020526006604060002001546009198101908111610265575b60008381526009602052604090206006810191909155600590810154111561182f578160005260096020526005604060002001546004198101908111610265577f3625b6daa0e8eee48d90b513d52b1634e46092d2b08639cca8b43bc88617402f916020915b8460005260098352600560406000200155836000526009825242600360406000200155604051908152a2005b60207f3625b6daa0e8eee48d90b513d52b1634e46092d2b08639cca8b43bc88617402f916000611803565b600061179d565b50606461175d565b60405162461bcd60e51b815260206004820152601860248201527750657420697320746f6f20746972656420746f20706c617960401b6044820152606490fd5b34610283576109246118ba36611bbb565b90604051926118ca602085611c47565b6000845261091e838383611db6565b34610283576109246118ea36611bbb565b91611db6565b3461028357604036600319011261028357611909611b8f565b6024356119158161206b565b331515806119cc575b8061199e575b6119895781906001600160a01b0384811691167f8c5be1e5ebec7d5bd14f71427d1e84f3dd0314c0f7b2291e5b200ac8c7c3b925600080a4600090815260046020526040902080546001600160a01b0319166001600160a01b03909216919091179055005b63a9fbf51f60e01b6000523360045260246000fd5b506001600160a01b038116600090815260056020908152604080832033845290915290205460ff1615611924565b506001600160a01b03811633141561191e565b34610283576020366003190112610283576004356119fc8161206b565b506000526004602052602060018060a01b0360406000205416604051908152f35b346102835760003660031901126102835760405160008054611a3e81611cd8565b8084529060018116908115610aaa5750600114611a65576108b5836108a181850382611c47565b60008080527f290decd9548b62a8d60345a988386fc84ba6bc95484008f6362f93160ef3e563939250905b808210611aa8575090915081016020016108a1610a3b565b919260018160209254838588010152019101909291611a90565b34610283576020366003190112610283576004359063ffffffff60e01b821680920361028357602091632483248360e11b8114908115611b04575b5015158152f35b6380ac58cd60e01b811491508115611b36575b8115611b25575b5083611afd565b6301ffc9a760e01b14905083611b1e565b635b5e139f60e01b81149150611b17565b60005b838110611b5a5750506000910152565b8181015183820152602001611b4a565b90602091611b8381518092818552858086019101611b47565b601f01601f1916010190565b600435906001600160a01b038216820361028357565b602435906001600160a01b038216820361028357565b6060906003190112610283576004356001600160a01b038116810361028357906024356001600160a01b0381168103610283579060443590565b9060088210156111275752565b9060058210156111275752565b61020081019081106001600160401b0382111761120057604052565b6101a081019081106001600160401b0382111761120057604052565b90601f801991011681019081106001600160401b0382111761120057604052565b6001600160401b03811161120057601f01601f191660200190565b929192611c8f82611c68565b91611c9d6040519384611c47565b829481845281830111610283578281602093846000960137010152565b9080601f8301121561028357816020611cd593359101611c83565b90565b90600182811c92168015611d08575b6020831014611cf257565b634e487b7160e01b600052602260045260246000fd5b91607f1691611ce7565b9060405191826000825492611d2684611cd8565b8084529360018116908115611d945750600114611d4d575b50611d4b92500383611c47565b565b90506000929192526020600020906000915b818310611d78575050906020611d4b9282010138611d3e565b6020919350806001915483858901015201910190918492611d5f565b905060209250611d4b94915060ff191682840152151560051b82010138611d3e565b6001600160a01b0390911691908215610627576000828152600260205260408120546001600160a01b0316938391859033151580611eae575b507fddf252ad1be2c89b69c2b068fc378daa952ba7f163c4a11628f55a4df523b3ef9082611e79575b838152600360209081526040808320805460010190558683526002909152812080546001600160a01b0319168517905580a46001600160a01b0316808303611e5f57505050565b6364283d7b60e01b60005260045260245260445260646000fd5b600085815260046020526040902080546001600160a01b03191690558281526003602052604081208054600019019055611e18565b915091925080611ef7575b15611ec8579084849238611def565b839085611ee157602491637e27328960e01b8252600452fd5b60449163177e802f60e01b825233600452602452fd5b503385148015611f25575b80611eb95750838152600460205260408120546001600160a01b03163314611eb9565b5084815260056020908152604080832033845290915281205460ff16611f02565b15611f4d57565b60405162461bcd60e51b81526020600482015260116024820152702737ba103a3432903832ba1037bbb732b960791b6044820152606490fd5b15611f8d57565b60405162461bcd60e51b815260206004820152601360248201527214195d081b9bdd0818db185a5b5959081e595d606a1b6044820152606490fd5b15611fcf57565b60405162461bcd60e51b815260206004820152600f60248201526e50657420697320736c656570696e6760881b6044820152606490fd5b9190820391821161026557565b1561201a57565b60405162461bcd60e51b815260206004820152601160248201527014195d08191bd95cdb89dd08195e1a5cdd607a1b6044820152606490fd5b60088210156111275752565b60058210156111275752565b6000818152600260205260409020546001600160a01b031690811561208e575090565b637e27328960e01b60005260045260246000fd5b80600052600960205260406000206008810160ff815460101c161561237f57610e106120d2600384015442612006565b0490811561237957600583018054836005029060058204851415908161026557821161236f5750600090612107818454612006565b83555b835460081c60ff1661234257505060068401805484600302906003820486036102655781116123385761213e908254612006565b90555b600484019283548160011b9260018060ff1b038316830361026557601491841161232f57612170848754612006565b86555b54106122a0575b50505061218b600283015442612006565b90600183019260ff845460101c166001811480612293575b80612285575b8061227a575b156121f457505050506202000062ff0000198254161790557f9945561603c6405164c7786f60dcebbdd35082cbf57870f1062e2027d5f55fe4602060405160028152a2565b600214928361226c575b508261225d575b5081612251575b50612215575050565b6203000062ff0000198254161790557f9945561603c6405164c7786f60dcebbdd35082cbf57870f1062e2027d5f55fe4602060405160038152a2565b6046915054113861220c565b60070154604610915038612205565b62093a8011159250386121fe565b5060328354116121af565b5060326007830154116121a9565b506202a3008410156121a3565b810460020361026557601e90600785019080825411600014612325576122c7908254612006565b81555b541080612319575b6122de575b808061217a565b600a604051602081019042825286604082015260408152612300606082611c47565b519020066122d757805460ff19166001179055386122d7565b5060ff815416156122d2565b50600081556122ca565b60008655612173565b5060009055612141565b60068601908154926102655782018092116102655760648211612366575b55612141565b60649150612360565b906000835561210a565b50505050565b505050565b6040519063c87b56dd60e01b82526004820152600081602481305afa600091816123c4575b50611cd557506040516123bd602082611c47565b6000815290565b90913d8082843e6123d58184611c47565b8201916020818403126105d2578051906001600160401b038211612440570182601f820112156105d25780519161240b83611c68565b936124196040519586611c47565b838552602084840101116105cf5750906124399160208085019101611b47565b90386123a9565b8280fd5b6007546001600160a01b0316330361245857565b63118cdaa760e01b6000523360045260246000fd5b823b61247b575b5050505050565b604051630a85bd0160e11b81526001600160a01b0391821660048201529181166024830152604482019390935260806064820152911691602090829081906124c7906084830190611b6a565b03816000865af18091600091612567575b509061253157503d1561252a573d6124ef81611c68565b906124fd6040519283611c47565b81523d6000602083013e5b805190816125255782633250574960e11b60005260045260246000fd5b602001fd5b6060612508565b6001600160e01b03191663757a42ff60e11b0161255357503880808080612474565b633250574960e11b60005260045260246000fd5b6020813d6020116125a2575b8161258060209383611c47565b810103126105d25751906001600160e01b0319821682036105cf5750386124d8565b3d9150612573565b6125b38161206b565b5060005260066020526125c96040600020611d12565b60006040516125d9602082611c47565b529056fea2646970667358221220b4af3347a2e4320590217a983927a54ba0cfeca5249066b9d1952470914dcbda64736f6c634300081a0033",
  "linkReferences": {},
  "deployedLinkReferences": {}
}