{
  "_format": "hh-sol-artifact-1",
  "contractName": "BlockmonMarketplace",
  "sourceName": "contracts/BlockmonMarketplace.sol",
  "abi": [
    {
      "inputs": [
        {
          "internalType": "address",
          "name": "_blockmonContract",
          "type": "address"
        },
        {
          "internalType": "uint256",
          "name": "_feePercentage",
          "type": "uint256"
        }
      ],
      "stateMutability": "nonpayable",
      "type": "constructor"
    },
    {
      "inputs": [
        {
          "internalType": "address",
          "name": "owner",
          "type": "address"
        }
      ],
      "name": "OwnableInvalidOwner",
      "type": "error"
    },
    {
      "inputs": [
        {
          "internalType": "address",
          "name": "account",
          "type": "address"
        }
      ],
      "name": "OwnableUnauthorizedAccount",
      "type": "error"
    },
    {
      "inputs": [],
      "name": "ReentrancyGuardReentrantCall",
      "type": "error"
    },
    {
      "anonymous": false,
      "inputs": [
        {
          "indexed": false,
          "internalType": "uint256",
          "name": "oldFeePercentage",
          "type": "uint256"
        },
        {
          "indexed": false,
          "internalType": "uint256",
          "name": "newFeePercentage",
          "type": "uint256"
        }
      ],
      "name": "FeePercentageUpdated",
      "type": "event"
    },
    {
      "anonymous": false,
      "inputs": [
        {
          "indexed": true,
          "internalType": "uint256",
          "name": "tokenId",
          "type": "uint256"
        },
        {
          "indexed": true,
          "internalType": "address",
          "name": "seller",
          "type": "address"
        }
      ],
      "name": "ListingCancelled",
      "type": "event"
    },
    {
      "anonymous": false,
      "inputs": [
        {
          "indexed": true,
          "internalType": "uint256",
          "name": "tokenId",
          "type": "uint256"
        },
        {
          "indexed": true,
          "internalType": "address",
          "name": "seller",
          "type": "address"
        },
        {
          "indexed": false,
          "internalType": "uint256",
          "name": "price",
          "type": "uint256"
        }
      ],
      "name": "ListingCreated",
      "type": "event"
    },
    {
      "anonymous": false,
      "inputs": [
        {
          "indexed": true,
          "internalType": "uint256",
          "name": "tokenId",
          "type": "uint256"
        },
        {
          "indexed": true,
          "internalType": "address",
          "name": "seller",
          "type": "address"
        },
        {
          "indexed": true,
          "internalType": "address",
          "name": "buyer",
          "type": "address"
        },
        {
          "indexed": false,
          "internalType": "uint256",
          "name": "price",
          "type": "uint256"
        }
      ],
      "name": "ListingPurchased",
      "type": "event"
    },
    {
      "anonymous": false,
      "inputs": [
        {
          "indexed": true,
          "internalType": "address",
          "name": "previousOwner",
          "type": "address"
        },
        {
          "indexed": true,
          "internalType": "address",
          "name": "newOwner",
          "type": "address"
        }
      ],
      "name": "OwnershipTransferred",
      "type": "event"
    },
    {
      "inputs": [],
      "name": "blockmonContract",
      "outputs": [
        {
          "internalType": "contract IERC721",
          "name": "",
          "type": "address"
        }
      ],
      "stateMutability": "view",
      "type": "function"
    },
    {
      "inputs": [
        {
          "internalType": "uint256",
          "name": "tokenId",
          "type": "uint256"
        }
      ],
      "name": "cancelListing",
      "outputs": [],
      "stateMutability": "nonpayable",
      "type": "function"
    },
    {
      "inputs": [
        {
          "internalType": "uint256",
          "name": "tokenId",
          "type": "uint256"
        }
      ],
      "name": "checkListing",
      "outputs": [
        {
          "internalType": "bool",
          "name": "isListed",
          "type": "bool"
        },
        {
          "internalType": "uint256",
          "name": "price",
          "type": "uint256"
        },
        {
          "internalType": "address",
          "name": "seller",
          "type": "address"
        }
      ],
      "stateMutability": "view",
      "type": "function"
    },
    {
      "inputs": [
        {
          "internalType": "uint256",
          "name": "tokenId",
          "type": "uint256"
        },
        {
          "internalType": "uint256",
          "name": "price",
          "type": "uint256"
        }
      ],
      "name": "createListing",
      "outputs": [],
      "stateMutability": "nonpayable",
      "type": "function"
    },
    {
      "inputs": [],
      "name": "feePercentage",
      "outputs": [
        {
          "internalType": "uint256",
          "name": "",
          "type": "uint256"
        }
      ],
      "stateMutability": "view",
      "type": "function"
    },
    {
      "inputs": [
        {
          "internalType": "uint256[]",
          "name": "tokenIds",
          "type": "uint256[]"
        }
      ],
      "name": "getActiveListings",
      "outputs": [
        {
          "components": [
            {
              "internalType": "address",
              "name": "seller",
              "type": "address"
            },
            {
              "internalType": "uint256",
              "name": "price",
              "type": "uint256"
            },
            {
              "internalType": "bool",
              "name": "active",
              "type": "bool"
            }
          ],
          "internalType": "struct BlockmonMarketplace.Listing[]",
          "name": "",
          "type": "tuple[]"
        }
      ],
      "stateMutability": "view",
      "type": "function"
    },
    {
      "inputs": [
        {
          "internalType": "uint256",
          "name": "",
          "type": "uint256"
        }
      ],
      "name": "listings",
      "outputs": [
        {
          "internalType": "address",
          "name": "seller",
          "type": "address"
        },
        {
          "internalType": "uint256",
          "name": "price",
          "type": "uint256"
        },
        {
          "internalType": "bool",
          "name": "active",
          "type": "bool"
        }
      ],
      "stateMutability": "view",
      "type": "function"
    },
    {
      "inputs": [],
      "name": "owner",
      "outputs": [
        {
          "internalType": "address",
          "name": "",
          "type": "address"
        }
      ],
      "stateMutability": "view",
      "type": "function"
    },
    {
      "inputs": [
        {
          "internalType": "uint256",
          "name": "tokenId",
          "type": "uint256"
        }
      ],
      "name": "purchaseListing",
      "outputs": [],
      "stateMutability": "payable",
      "type": "function"
    },
    {
      "inputs": [],
      "name": "renounceOwnership",
      "outputs": [],
      "stateMutability": "nonpayable",
      "type": "function"
    },
    {
      "inputs": [
        {
          "internalType": "address",
          "name": "newOwner",
          "type": "address"
        }
      ],
      "name": "transferOwnership",
      "outputs": [],
      "stateMutability": "nonpayable",
      "type": "function"
    },
    {
      "inputs": [
        {
          "internalType": "uint256",
          "name": "_feePercentage",
          "type": "uint256"
        }
      ],
      "name": "updateFeePercentage",
      "outputs": [],
      "stateMutability": "nonpayable",
      "type": "function"
    },
    {
      "inputs": [],
      "name": "withdrawFees",
      "outputs": [],
      "stateMutability": "nonpayable",
      "type": "function"
    }
  ],
  "bytecode": "0x60803461018657601f610fd538819003918201601f19168301916001600160401b0383118484101761018b5780849260409485528339810103126101865780516001600160a01b0381169190829003610186576020015190600160005533156101705760018054336001600160a01b03198216811790925560405191906001600160a01b03167f8be0079c531659141344cd1fd0a4f28419497f9722a3daafe3b4186f6b6457e0600080a3811561012457506103e882116100e057600280546001600160a01b031916919091179055600355604051610e3390816101a28239f35b606460405162461bcd60e51b815260206004820152602060248201527f4665652070657263656e746167652063616e6e6f7420657863656564203130256044820152fd5b62461bcd60e51b815260206004820152602160248201527f496e76616c696420426c6f636b6d6f6e20636f6e7472616374206164647265736044820152607360f81b6064820152608490fd5b631e4fbdf760e01b600052600060045260246000fd5b600080fd5b634e487b7160e01b600052604160045260246000fdfe6080604052600436101561001257600080fd5b6000803560e01c8063169d5a7d146109c4578063305a67a81461091a578063476343ee14610859578063494d23c3146108305780635443b28a146107e05780636cad3fb01461073c578063715018a6146106df5780638da5cb5b146106b6578063a001ecdd14610698578063a308f2b414610487578063a79123a91461018e578063de74e57b1461013f5763f2fde38b146100ac57600080fd5b3461013c57602036600319011261013c576004356001600160a01b03811690819003610138576100da610dd4565b801561012457600180546001600160a01b0319811683179091556001600160a01b03167f8be0079c531659141344cd1fd0a4f28419497f9722a3daafe3b4186f6b6457e08380a380f35b631e4fbdf760e01b82526004829052602482fd5b5080fd5b80fd5b503461013c57602036600319011261013c576040606091600435815260046020522060018060a01b038154169060ff600260018301549201541690604051928352602083015215156040820152f35b503461013c57604036600319011261013c576004356024359060018060a01b03600254166040516331a9108f60e11b8152826004820152602081602481855afa9081156103d3578591610468575b50336001600160a01b03909116036104235782156103de5760405163020604bf60e21b815260048101839052602081602481855afa9081156103d35785916103a4575b506001600160a01b0316301490811561031e575b50156102c65760405161024581610cbb565b338152600260208201918483526040810192600184528487526004602052604087209160018060a01b0390511660018060a01b0319835416178255516001820155019051151560ff801983541691161790556040519182527f9adf89188ff96bbe0e772b6a9345d935a240c2bd656be8db63db0d091e92cb9d60203393a380f35b60405162461bcd60e51b815260206004820152602a60248201527f4d61726b6574706c616365206e6f7420617070726f76656420746f207472616e60448201526939b332b9103a37b5b2b760b11b6064820152608490fd5b60405163e985e9c560e01b81523360048201523060248201529150602090829060449082905afa90811561039957849161035a575b5038610233565b90506020813d602011610391575b8161037560209383610ced565b8101031261038d5751801515810361038d5738610353565b8380fd5b3d9150610368565b6040513d86823e3d90fd5b6103c6915060203d6020116103cc575b6103be8183610ced565b810190610db0565b3861021f565b503d6103b4565b6040513d87823e3d90fd5b60405162461bcd60e51b815260206004820152601f60248201527f5072696365206d7573742062652067726561746572207468616e207a65726f006044820152606490fd5b60405162461bcd60e51b815260206004820152601b60248201527f4e6f7420746865206f776e6572206f66207468697320746f6b656e00000000006044820152606490fd5b610481915060203d6020116103cc576103be8183610ced565b386101dc565b503461013c57602036600319011261013c5760043567ffffffffffffffff8111610138573660238201121561013857806004013567ffffffffffffffff8111610694576024820191602436918360051b010111610694578291835b82811061065557506104f383610d84565b926105016040519485610ced565b808452610510601f1991610d84565b01845b81811061062c5750508390845b838110610591578486604051918291602083016020845282518091526020604085019301915b818110610554575050500390f35b825180516001600160a01b031685526020818101518187015260409182015115159186019190915286955060609094019390920191600101610546565b61059c818584610d4f565b358652600460205260ff6002604088200154166105bc575b600101610520565b916106246001916105ce858786610d4f565b35885260046020526040882060ff6002604051926105eb84610cbb565b868060a01b038154168452868101546020850152015416151560408201526106138289610d9c565b5261061e8188610d9c565b50610d75565b9290506105b4565b60209060405161063b81610cbb565b878152878382015287604082015282828801015201610513565b610660818484610d4f565b358552600460205260ff600260408720015416610680575b6001016104e2565b9261068c600191610d75565b939050610678565b8280fd5b503461013c578060031936011261013c576020600354604051908152f35b503461013c578060031936011261013c576001546040516001600160a01b039091168152602090f35b503461013c578060031936011261013c576106f8610dd4565b600180546001600160a01b0319811690915581906001600160a01b03167f8be0079c531659141344cd1fd0a4f28419497f9722a3daafe3b4186f6b6457e08280a380f35b503461013c57602036600319011261013c57600435610759610dd4565b6103e8811161079c5760407fb27c12a91635e11c22bffa7bd8e0a8735da52b94aaefd7f249776c7590ba789491600354908060035582519182526020820152a180f35b606460405162461bcd60e51b815260206004820152602060248201527f4665652070657263656e746167652063616e6e6f7420657863656564203130256044820152fd5b503461013c57602036600319011261013c576040606091600435815260046020522060ff6002820154169060018101549060018060a01b0390541690604051921515835260208301526040820152f35b503461013c578060031936011261013c576002546040516001600160a01b039091168152602090f35b503461013c578060031936011261013c57610872610dd4565b4780156108df5760015482918291829182916001600160a01b03165af1610897610d0f565b50156108a05780f35b60405162461bcd60e51b81526020600482015260176024820152764661696c656420746f207769746864726177206665657360481b6044820152606490fd5b60405162461bcd60e51b81526020600482015260136024820152724e6f206665657320746f20776974686472617760681b6044820152606490fd5b503461013c57602036600319011261013c57600435808252600460205260408220600281019081549061094f60ff8316610c57565b546001600160a01b0316330361098e5760ff1916905533907f8e25282255ab31897df2b0456bb993ac7f84d376861aefd84901d2d63a7428a28380a380f35b60405162461bcd60e51b815260206004820152600e60248201526d2737ba103a34329039b2b63632b960911b6044820152606490fd5b50602036600319011261013c576004356002825414610c4857600282558082526004602052604082206002810191825492610a0160ff8516610c57565b600183015492833410610c0c57546001600160a01b031693338514610bc75760ff19169055600354808302908382041483151715610bb357612710610a47910483610c98565b60025485906001600160a01b0316803b15610138578190606460405180948193632142170760e11b83528a60048401523360248401528860448401525af18015610ba857610b94575b508480808093875af1610aa1610d0f565b5015610b50578392604051918383527f05e16e5cf13eeb3ff32f51644ccd765a8ecfd4114beb5820ff29d0b3b1e91a8460203394a4803411610ae6575b506001905580f35b8180610af3819334610c98565b335af1610afe610d0f565b5015610b0b578038610ade565b60405162461bcd60e51b815260206004820152601f60248201527f4661696c656420746f20726566756e6420657863657373207061796d656e74006044820152606490fd5b606460405162461bcd60e51b815260206004820152602060248201527f4661696c656420746f2073656e64207061796d656e7420746f2073656c6c65726044820152fd5b85610ba191969296610ced565b9338610a90565b6040513d88823e3d90fd5b634e487b7160e01b85526011600452602485fd5b60405162461bcd60e51b815260206004820152601b60248201527f43616e6e6f742062757920796f7572206f776e206c697374696e6700000000006044820152606490fd5b60405162461bcd60e51b8152602060048201526014602482015273125b9cdd59999a58da595b9d081c185e5b595b9d60621b6044820152606490fd5b633ee5aeb560e01b8252600482fd5b15610c5e57565b60405162461bcd60e51b81526020600482015260126024820152714c697374696e67206e6f742061637469766560701b6044820152606490fd5b91908203918211610ca557565b634e487b7160e01b600052601160045260246000fd5b6060810190811067ffffffffffffffff821117610cd757604052565b634e487b7160e01b600052604160045260246000fd5b90601f8019910116810190811067ffffffffffffffff821117610cd757604052565b3d15610d4a573d9067ffffffffffffffff8211610cd75760405191610d3e601f8201601f191660200184610ced565b82523d6000602084013e565b606090565b9190811015610d5f5760051b0190565b634e487b7160e01b600052603260045260246000fd5b6000198114610ca55760010190565b67ffffffffffffffff8111610cd75760051b60200190565b8051821015610d5f5760209160051b010190565b90816020910312610dcf57516001600160a01b0381168103610dcf5790565b600080fd5b6001546001600160a01b03163303610de857565b63118cdaa760e01b6000523360045260246000fdfea2646970667358221220f11d0185bbb455572af1d4782656f52638acd5c43aaf152bf47752b3c5537a5d64736f6c634300081a0033",
  "linkReferences": {},
  "deployedLinkReferences": {}
}