{
  "_format": "hh-sol-artifact-1",
  "contractName": "Blockmon",
  "sourceName": "contracts/Blockmon.sol",
  "abi": [
    {
      "inputs": [],
      "stateMutability": "nonpayable",
      "type": "constructor"
    },
    {
      "inputs": [
        {
          "internalType": "address",
          "name": "sender",
          "type": "address"
        },
        {
          "internalType": "uint256",
          "name": "tokenId",
          "type": "uint256"
        },
        {
          "internalType": "address",
          "name": "owner",
          "type": "address"
        }
      ],
      "name": "ERC721IncorrectOwner",
      "type": "error"
    },
    {
      "inputs": [
        {
          "internalType": "address",
          "name": "operator",
          "type": "address"
        },
        {
          "internalType": "uint256",
          "name": "tokenId",
          "type": "uint256"
        }
      ],
      "name": "ERC721InsufficientApproval",
      "type": "error"
    },
    {
      "inputs": [
        {
          "internalType": "address",
          "name": "approver",
          "type": "address"
        }
      ],
      "name": "ERC721InvalidApprover",
      "type": "error"
    },
    {
      "inputs": [
        {
          "internalType": "address",
          "name": "operator",
          "type": "address"
        }
      ],
      "name": "ERC721InvalidOperator",
      "type": "error"
    },
    {
      "inputs": [
        {
          "internalType": "address",
          "name": "owner",
          "type": "address"
        }
      ],
      "name": "ERC721InvalidOwner",
      "type": "error"
    },
    {
      "inputs": [
        {
          "internalType": "address",
          "name": "receiver",
          "type": "address"
        }
      ],
      "name": "ERC721InvalidReceiver",
      "type": "error"
    },
    {
      "inputs": [
        {
          "internalType": "address",
          "name": "sender",
          "type": "address"
        }
      ],
      "name": "ERC721InvalidSender",
      "type": "error"
    },
    {
      "inputs": [
        {
          "internalType": "uint256",
          "name": "tokenId",
          "type": "uint256"
        }
      ],
      "name": "ERC721NonexistentToken",
      "type": "error"
    },
    {
      "inputs": [
        {
          "internalType": "address",
          "name": "owner",
          "type": "address"
        }
      ],
      "name": "OwnableInvalidOwner",
      "type": "error"
    },
    {
      "inputs": [
        {
          "internalType": "address",
          "name": "account",
          "type": "address"
        }
      ],
      "name": "OwnableUnauthorizedAccount",
      "type": "error"
    },
    {
      "anonymous": false,
      "inputs": [
        {
          "indexed": true,
          "internalType": "address",
          "name": "owner",
          "type": "address"
        },
        {
          "indexed": true,
          "internalType": "address",
          "name": "approved",
          "type": "address"
        },
        {
          "indexed": true,
          "internalType": "uint256",
          "name": "tokenId",
          "type": "uint256"
        }
      ],
      "name": "Approval",
      "type": "event"
    },
    {
      "anonymous": false,
      "inputs": [
        {
          "indexed": true,
          "internalType": "address",
          "name": "owner",
          "type": "address"
        },
        {
          "indexed": true,
          "internalType": "address",
          "name": "operator",
          "type": "address"
        },
        {
          "indexed": false,
          "internalType": "bool",
          "name": "approved",
          "type": "bool"
        }
      ],
      "name": "ApprovalForAll",
      "type": "event"
    },
    {
      "anonymous": false,
      "inputs": [
        {
          "indexed": false,
          "internalType": "uint256",
          "name": "_fromTokenId",
          "type": "uint256"
        },
        {
          "indexed": false,
          "internalType": "uint256",
          "name": "_toTokenId",
          "type": "uint256"
        }
      ],
      "name": "BatchMetadataUpdate",
      "type": "event"
    },
    {
      "anonymous": false,
      "inputs": [
        {
          "indexed": true,
          "internalType": "uint256",
          "name": "tokenId",
          "type": "uint256"
        },
        {
          "indexed": true,
          "internalType": "uint256",
          "name": "opponentId",
          "type": "uint256"
        },
        {
          "indexed": false,
          "internalType": "bool",
          "name": "won",
          "type": "bool"
        }
      ],
      "name": "BattleCompleted",
      "type": "event"
    },
    {
      "anonymous": false,
      "inputs": [
        {
          "indexed": true,
          "internalType": "uint256",
          "name": "tokenId",
          "type": "uint256"
        },
        {
          "indexed": false,
          "internalType": "uint256",
          "name": "amount",
          "type": "uint256"
        }
      ],
      "name": "ExperienceGained",
      "type": "event"
    },
    {
      "anonymous": false,
      "inputs": [
        {
          "indexed": false,
          "internalType": "uint256",
          "name": "_tokenId",
          "type": "uint256"
        }
      ],
      "name": "MetadataUpdate",
      "type": "event"
    },
    {
      "anonymous": false,
      "inputs": [
        {
          "indexed": true,
          "internalType": "address",
          "name": "previousOwner",
          "type": "address"
        },
        {
          "indexed": true,
          "internalType": "address",
          "name": "newOwner",
          "type": "address"
        }
      ],
      "name": "OwnershipTransferred",
      "type": "event"
    },
    {
      "anonymous": false,
      "inputs": [
        {
          "indexed": true,
          "internalType": "uint256",
          "name": "tokenId",
          "type": "uint256"
        },
        {
          "indexed": true,
          "internalType": "address",
          "name": "claimer",
          "type": "address"
        }
      ],
      "name": "PokemonClaimed",
      "type": "event"
    },
    {
      "anonymous": false,
      "inputs": [
        {
          "indexed": true,
          "internalType": "uint256",
          "name": "tokenId",
          "type": "uint256"
        },
        {
          "indexed": false,
          "internalType": "bytes32",
          "name": "claimHash",
          "type": "bytes32"
        }
      ],
      "name": "PokemonCreated",
      "type": "event"
    },
    {
      "anonymous": false,
      "inputs": [
        {
          "indexed": true,
          "internalType": "uint256",
          "name": "tokenId",
          "type": "uint256"
        },
        {
          "indexed": false,
          "internalType": "uint8",
          "name": "newLevel",
          "type": "uint8"
        }
      ],
      "name": "PokemonLeveledUp",
      "type": "event"
    },
    {
      "anonymous": false,
      "inputs": [
        {
          "indexed": true,
          "internalType": "address",
          "name": "from",
          "type": "address"
        },
        {
          "indexed": true,
          "internalType": "address",
          "name": "to",
          "type": "address"
        },
        {
          "indexed": true,
          "internalType": "uint256",
          "name": "tokenId",
          "type": "uint256"
        }
      ],
      "name": "Transfer",
      "type": "event"
    },
    {
      "inputs": [
        {
          "internalType": "address",
          "name": "to",
          "type": "address"
        },
        {
          "internalType": "uint256",
          "name": "tokenId",
          "type": "uint256"
        }
      ],
      "name": "approve",
      "outputs": [],
      "stateMutability": "nonpayable",
      "type": "function"
    },
    {
      "inputs": [
        {
          "internalType": "address",
          "name": "owner",
          "type": "address"
        }
      ],
      "name": "balanceOf",
      "outputs": [
        {
          "internalType": "uint256",
          "name": "",
          "type": "uint256"
        }
      ],
      "stateMutability": "view",
      "type": "function"
    },
    {
      "inputs": [],
      "name": "battleOracleAddress",
      "outputs": [
        {
          "internalType": "address",
          "name": "",
          "type": "address"
        }
      ],
      "stateMutability": "view",
      "type": "function"
    },
    {
      "inputs": [
        {
          "internalType": "bytes32",
          "name": "hash",
          "type": "bytes32"
        }
      ],
      "name": "claimPokemon",
      "outputs": [],
      "stateMutability": "nonpayable",
      "type": "function"
    },
    {
      "inputs": [
        {
          "internalType": "string",
          "name": "name",
          "type": "string"
        },
        {
          "internalType": "enum Blockmon.Attribute",
          "name": "attribute",
          "type": "uint8"
        },
        {
          "internalType": "enum Blockmon.Rarity",
          "name": "rarity",
          "type": "uint8"
        },
        {
          "internalType": "string",
          "name": "uri",
          "type": "string"
        }
      ],
      "name": "createPokemon",
      "outputs": [
        {
          "internalType": "uint256",
          "name": "",
          "type": "uint256"
        },
        {
          "internalType": "bytes32",
          "name": "",
          "type": "bytes32"
        }
      ],
      "stateMutability": "nonpayable",
      "type": "function"
    },
    {
      "inputs": [
        {
          "internalType": "uint256",
          "name": "tokenId",
          "type": "uint256"
        }
      ],
      "name": "getApproved",
      "outputs": [
        {
          "internalType": "address",
          "name": "",
          "type": "address"
        }
      ],
      "stateMutability": "view",
      "type": "function"
    },
    {
      "inputs": [
        {
          "internalType": "uint256",
          "name": "tokenId",
          "type": "uint256"
        }
      ],
      "name": "getPokemon",
      "outputs": [
        {
          "internalType": "string",
          "name": "name",
          "type": "string"
        },
        {
          "internalType": "enum Blockmon.Attribute",
          "name": "attribute",
          "type": "uint8"
        },
        {
          "internalType": "enum Blockmon.Rarity",
          "name": "rarity",
          "type": "uint8"
        },
        {
          "internalType": "uint8",
          "name": "level",
          "type": "uint8"
        },
        {
          "internalType": "uint256",
          "name": "hp",
          "type": "uint256"
        },
        {
          "internalType": "uint256",
          "name": "baseDamage",
          "type": "uint256"
        },
        {
          "internalType": "uint256",
          "name": "battleCount",
          "type": "uint256"
        },
        {
          "internalType": "uint256",
          "name": "battleWins",
          "type": "uint256"
        },
        {
          "internalType": "uint256",
          "name": "birthTime",
          "type": "uint256"
        },
        {
          "internalType": "uint256",
          "name": "lastBattleTime",
          "type": "uint256"
        },
        {
          "internalType": "bool",
          "name": "claimed",
          "type": "bool"
        },
        {
          "internalType": "address",
          "name": "owner",
          "type": "address"
        },
        {
          "internalType": "string",
          "name": "tokenURI",
          "type": "string"
        },
        {
          "internalType": "uint256",
          "name": "age",
          "type": "uint256"
        },
        {
          "internalType": "uint256",
          "name": "experience",
          "type": "uint256"
        }
      ],
      "stateMutability": "view",
      "type": "function"
    },
    {
      "inputs": [
        {
          "internalType": "bytes32",
          "name": "",
          "type": "bytes32"
        }
      ],
      "name": "hashToToken",
      "outputs": [
        {
          "internalType": "uint256",
          "name": "",
          "type": "uint256"
        }
      ],
      "stateMutability": "view",
      "type": "function"
    },
    {
      "inputs": [
        {
          "internalType": "address",
          "name": "owner",
          "type": "address"
        },
        {
          "internalType": "address",
          "name": "operator",
          "type": "address"
        }
      ],
      "name": "isApprovedForAll",
      "outputs": [
        {
          "internalType": "bool",
          "name": "",
          "type": "bool"
        }
      ],
      "stateMutability": "view",
      "type": "function"
    },
    {
      "inputs": [
        {
          "internalType": "uint256",
          "name": "tokenId",
          "type": "uint256"
        }
      ],
      "name": "isPetClaimed",
      "outputs": [
        {
          "internalType": "bool",
          "name": "",
          "type": "bool"
        }
      ],
      "stateMutability": "view",
      "type": "function"
    },
    {
      "inputs": [],
      "name": "name",
      "outputs": [
        {
          "internalType": "string",
          "name": "",
          "type": "string"
        }
      ],
      "stateMutability": "view",
      "type": "function"
    },
    {
      "inputs": [],
      "name": "owner",
      "outputs": [
        {
          "internalType": "address",
          "name": "",
          "type": "address"
        }
      ],
      "stateMutability": "view",
      "type": "function"
    },
    {
      "inputs": [
        {
          "internalType": "uint256",
          "name": "tokenId",
          "type": "uint256"
        }
      ],
      "name": "ownerOf",
      "outputs": [
        {
          "internalType": "address",
          "name": "",
          "type": "address"
        }
      ],
      "stateMutability": "view",
      "type": "function"
    },
    {
      "inputs": [
        {
          "internalType": "uint256",
          "name": "",
          "type": "uint256"
        }
      ],
      "name": "pokemons",
      "outputs": [
        {
          "internalType": "string",
          "name": "name",
          "type": "string"
        },
        {
          "internalType": "enum Blockmon.Attribute",
          "name": "attribute",
          "type": "uint8"
        },
        {
          "internalType": "enum Blockmon.Rarity",
          "name": "rarity",
          "type": "uint8"
        },
        {
          "internalType": "uint8",
          "name": "level",
          "type": "uint8"
        },
        {
          "internalType": "uint256",
          "name": "hp",
          "type": "uint256"
        },
        {
          "internalType": "uint256",
          "name": "baseDamage",
          "type": "uint256"
        },
        {
          "internalType": "uint256",
          "name": "battleCount",
          "type": "uint256"
        },
        {
          "internalType": "uint256",
          "name": "battleWins",
          "type": "uint256"
        },
        {
          "internalType": "uint256",
          "name": "birthTime",
          "type": "uint256"
        },
        {
          "internalType": "uint256",
          "name": "lastBattleTime",
          "type": "uint256"
        },
        {
          "internalType": "bool",
          "name": "claimed",
          "type": "bool"
        },
        {
          "internalType": "uint256",
          "name": "experience",
          "type": "uint256"
        }
      ],
      "stateMutability": "view",
      "type": "function"
    },
    {
      "inputs": [
        {
          "internalType": "uint256",
          "name": "loserTokenId",
          "type": "uint256"
        },
        {
          "internalType": "uint256",
          "name": "winnerTokenId",
          "type": "uint256"
        },
        {
          "internalType": "uint256",
          "name": "experienceGained",
          "type": "uint256"
        }
      ],
      "name": "recordBattleLoss",
      "outputs": [],
      "stateMutability": "nonpayable",
      "type": "function"
    },
    {
      "inputs": [
        {
          "internalType": "uint256",
          "name": "winnerTokenId",
          "type": "uint256"
        },
        {
          "internalType": "uint256",
          "name": "loserTokenId",
          "type": "uint256"
        },
        {
          "internalType": "uint256",
          "name": "experienceGained",
          "type": "uint256"
        }
      ],
      "name": "recordBattleWin",
      "outputs": [],
      "stateMutability": "nonpayable",
      "type": "function"
    },
    {
      "inputs": [],
      "name": "renounceOwnership",
      "outputs": [],
      "stateMutability": "nonpayable",
      "type": "function"
    },
    {
      "inputs": [
        {
          "internalType": "address",
          "name": "from",
          "type": "address"
        },
        {
          "internalType": "address",
          "name": "to",
          "type": "address"
        },
        {
          "internalType": "uint256",
          "name": "tokenId",
          "type": "uint256"
        }
      ],
      "name": "safeTransferFrom",
      "outputs": [],
      "stateMutability": "nonpayable",
      "type": "function"
    },
    {
      "inputs": [
        {
          "internalType": "address",
          "name": "from",
          "type": "address"
        },
        {
          "internalType": "address",
          "name": "to",
          "type": "address"
        },
        {
          "internalType": "uint256",
          "name": "tokenId",
          "type": "uint256"
        },
        {
          "internalType": "bytes",
          "name": "data",
          "type": "bytes"
        }
      ],
      "name": "safeTransferFrom",
      "outputs": [],
      "stateMutability": "nonpayable",
      "type": "function"
    },
    {
      "inputs": [
        {
          "internalType": "address",
          "name": "operator",
          "type": "address"
        },
        {
          "internalType": "bool",
          "name": "approved",
          "type": "bool"
        }
      ],
      "name": "setApprovalForAll",
      "outputs": [],
      "stateMutability": "nonpayable",
      "type": "function"
    },
    {
      "inputs": [
        {
          "internalType": "address",
          "name": "_battleOracleAddress",
          "type": "address"
        }
      ],
      "name": "setBattleOracleAddress",
      "outputs": [],
      "stateMutability": "nonpayable",
      "type": "function"
    },
    {
      "inputs": [
        {
          "internalType": "bytes4",
          "name": "interfaceId",
          "type": "bytes4"
        }
      ],
      "name": "supportsInterface",
      "outputs": [
        {
          "internalType": "bool",
          "name": "",
          "type": "bool"
        }
      ],
      "stateMutability": "view",
      "type": "function"
    },
    {
      "inputs": [],
      "name": "symbol",
      "outputs": [
        {
          "internalType": "string",
          "name": "",
          "type": "string"
        }
      ],
      "stateMutability": "view",
      "type": "function"
    },
    {
      "inputs": [
        {
          "internalType": "uint256",
          "name": "",
          "type": "uint256"
        }
      ],
      "name": "tokenClaimHashes",
      "outputs": [
        {
          "internalType": "bytes32",
          "name": "",
          "type": "bytes32"
        }
      ],
      "stateMutability": "view",
      "type": "function"
    },
    {
      "inputs": [
        {
          "internalType": "uint256",
          "name": "tokenId",
          "type": "uint256"
        }
      ],
      "name": "tokenURI",
      "outputs": [
        {
          "internalType": "string",
          "name": "",
          "type": "string"
        }
      ],
      "stateMutability": "view",
      "type": "function"
    },
    {
      "inputs": [
        {
          "internalType": "address",
          "name": "from",
          "type": "address"
        },
        {
          "internalType": "address",
          "name": "to",
          "type": "address"
        },
        {
          "internalType": "uint256",
          "name": "tokenId",
          "type": "uint256"
        }
      ],
      "name": "transferFrom",
      "outputs": [],
      "stateMutability": "nonpayable",
      "type": "function"
    },
    {
      "inputs": [
        {
          "internalType": "address",
          "name": "newOwner",
          "type": "address"
        }
      ],
      "name": "transferOwnership",
      "outputs": [],
      "stateMutability": "nonpayable",
      "type": "function"
    },
    {
      "inputs": [
        {
          "internalType": "bytes32",
          "name": "",
          "type": "bytes32"
        }
      ],
      "name": "usedHashes",
      "outputs": [
        {
          "internalType": "bool",
          "name": "",
          "type": "bool"
        }
      ],
      "stateMutability": "view",
      "type": "function"
    }
  ],
  "bytecode": "0x60806040523461038457604080519081016001600160401b038111828210176102915760409081526008825267213637b1b5b6b7b760c11b602083015280519081016001600160401b038111828210176102915760405260038152622126a760e91b602082015281516001600160401b03811161029157600054600181811c9116801561037a575b602082101461027157601f8111610316575b50602092601f82116001146102b257928192936000926102a7575b50508160011b916000199060031b1c1916176000555b80516001600160401b03811161029157600154600181811c91168015610287575b602082101461027157601f811161020c575b50602091601f82116001146101a85791819260009261019d575b50508160011b916000199060031b1c1916176001555b33156101875760078054336001600160a01b03198216811790925560405191906001600160a01b03167f8be0079c531659141344cd1fd0a4f28419497f9722a3daafe3b4186f6b6457e0600080a36120c3908161038a8239f35b631e4fbdf760e01b600052600060045260246000fd5b015190503880610117565b601f198216926001600052806000209160005b8581106101f4575083600195106101db575b505050811b0160015561012d565b015160001960f88460031b161c191690553880806101cd565b919260206001819286850151815501940192016101bb565b60016000527fb10e2d527612073b26eecdfd717e6a320cf44b4afac2b0732d9fcbe2b7fa0cf6601f830160051c81019160208410610267575b601f0160051c01905b81811061025b57506100fd565b6000815560010161024e565b9091508190610245565b634e487b7160e01b600052602260045260246000fd5b90607f16906100eb565b634e487b7160e01b600052604160045260246000fd5b0151905038806100b4565b601f1982169360008052806000209160005b8681106102fe57508360019596106102e5575b505050811b016000556100ca565b015160001960f88460031b161c191690553880806102d7565b919260206001819286850151815501940192016102c4565b600080527f290decd9548b62a8d60345a988386fc84ba6bc95484008f6362f93160ef3e563601f830160051c81019160208410610370575b601f0160051c01905b8181106103645750610099565b60008155600101610357565b909150819061034e565b90607f1690610087565b600080fdfe608080604052600436101561001357600080fd5b60003560e01c90816301ffc9a7146116335750806306fdde031461158e578063081812fc14611550578063095ea7b314611461578063135d69b9146114355780631524e2401461131157806323b872dd146112fa57806342842e0e146112ca5780634f99e5c8146111b95780635314287114610e1f5780636352211e14610def57806370a0823114610d99578063715018a614610d3c57806375c6ef7414610d105780638583107914610c385780638748c0bb146106ec5780638da5cb5b146106c357806395d89b41146105f6578063a22cb4651461054c578063a6bc2de814610509578063aef18bf7146104d8578063b88d4fde1461046b578063c87b56dd14610434578063d354853e146103e2578063d4cebef1146103b9578063e985e9c51461035e578063f0b305db146101e25763f2fde38b1461015357600080fd5b346101dd5760203660031901126101dd5761016c611700565b610174611e34565b6001600160a01b031680156101c757600780546001600160a01b0319811683179091556001600160a01b03167f8be0079c531659141344cd1fd0a4f28419497f9722a3daafe3b4186f6b6457e0600080a3005b631e4fbdf760e01b600052600060045260246000fd5b600080fd5b346101dd5760203660031901126101dd5760043580151580610352575b61020890611c3a565b80600052600a602052604060002090600060ff6008840154169283610341575b600681015460009281610319575b600183015490600284015496600385015496600486015494600587015460078801549261026290611fcd565b96600989015498610272906117db565b9a6040519c8d809d6101e082526101e0820161028d916116db565b9961029e6020830160ff831661187f565b6102b26040830160ff600884901c166118a2565b60101c60ff166060919091015260808d015260a08c015260c08b015260e08a015261010089015261012088015215156101408701526001600160a01b0316610160860152848103610180860152610308916116db565b916101a08401526101c08301520390f35b925080420342811161032b5792610236565b634e487b7160e01b600052601160045260246000fd5b905061034c82611c7e565b90610228565b506008548111156101ff565b346101dd5760403660031901126101dd57610377611700565b61037f611716565b9060018060a01b0316600052600560205260406000209060018060a01b0316600052602052602060ff604060002054166040519015158152f35b346101dd5760003660031901126101dd576009546040516001600160a01b039091168152602090f35b346101dd5760203660031901126101dd5760043580151580610428575b61040890611c3a565b600052600a602052602060ff600860406000200154166040519015158152f35b506008548111156103ff565b346101dd5760203660031901126101dd57610467610453600435611f9a565b6040519182916020835260208301906116db565b0390f35b346101dd5760803660031901126101dd57610484611700565b61048c611716565b90604435606435926001600160401b0384116101dd57366023850112156101dd576104c46104d69436906024816004013591016118ca565b926104d0838383611a97565b33611e5d565b005b346101dd5760203660031901126101dd57600435600052600b602052602060ff604060002054166040519015158152f35b346101dd5760203660031901126101dd57610522611700565b61052a611e34565b600980546001600160a01b0319166001600160a01b0392909216919091179055005b346101dd5760403660031901126101dd57610565611700565b60243590811515908183036101dd576001600160a01b03169182156105e1576105b39033600052600560205260406000208460005260205260406000209060ff801983541691151516179055565b6040519081527f17307eab39ab6107e8899845ad3d59bd9653f200f220920489ca2b5937696c3160203392a3005b82630b61174360e31b60005260045260246000fd5b346101dd5760003660031901126101dd57604051600060015461061881611780565b808452906001811690811561069f5750600114610640575b61046783610453818503826117ba565b600160009081527fb10e2d527612073b26eecdfd717e6a320cf44b4afac2b0732d9fcbe2b7fa0cf6939250905b80821061068557509091508101602001610453610630565b91926001816020925483858801015201910190929161066d565b60ff191660208086019190915291151560051b840190910191506104539050610630565b346101dd5760003660031901126101dd576007546040516001600160a01b039091168152602090f35b346101dd5760803660031901126101dd576004356001600160401b0381116101dd5761071c903690600401611901565b6024359060088210156101dd5760443560058110156101dd576064356001600160401b0381116101dd57610754903690600401611901565b9261075d611e34565b600854926001840180941161032b578360085560405160208101908582524260408201523360601b6060820152605481526107996074826117ba565b51902092600060198202821590838104601914821715610c24576032019182603211610c1057506003830290838204600314171561032b57600501918260051161032b576040519361018085018581106001600160401b03821117610bfa5760405284526000946020850152604084015260016060840152608083015260a08201528160c08201528160e082015281610100820152816101208201528161014082015281610160820152838252600a602052604082209080518051906001600160401b038211610be657819061086f8554611780565b601f8111610b99575b50602090601f8311600114610b36578692610b2b575b50508160011b916000199060031b1c19161782555b6001820160208201516008811015610b1757815460408401516005811015610b0357606085015162ffffff1990921660ff9093169290921760089290921b61ff00169190911760109190911b62ff000016179055600990610160906080810151600285015560a0810151600385015560c0810151600485015560e081015160058501556101008101516006850155610120810151600785015561095c6101408201511515600886019060ff801983541691151516179055565b0151910155828152600c602052816040822055818152600d602052826040822055828152600660205260408120908451906001600160401b038211610aef576109a58354611780565b601f8111610aaa575b50602090601f8311600114610a46579060409683610a3b575b50508160011b916000199060031b1c19161790555b7ff8e1a15aba9398e019f0b49df1a4fde98ee17ae345cb5f6b5e2c27f5033e8ce760208451848152a1817f6ff938f30cd4609e9a475ee7bb68e4a4359bda86905f1fd043d59c9a4054d38060208551848152a282519182526020820152f35b0151905086806109c7565b95601f198316848852828820975b818110610a9257509160409791846001959410610a79575b505050811b0190556109dc565b015160001960f88460031b161c19169055868080610a6c565b83830151895560019098019760209384019301610a54565b83825260208220601f840160051c81019160208510610ae5575b601f0160051c01905b818110610ada57506109ae565b828155600101610acd565b9091508190610ac4565b634e487b7160e01b81526041600452602490fd5b634e487b7160e01b87526021600452602487fd5b634e487b7160e01b85526021600452602485fd5b01519050888061088e565b8587528187209250601f198416875b818110610b815750908460019594939210610b68575b505050811b0182556108a3565b015160001960f88460031b161c19169055888080610b5b565b92936020600181928786015181550195019301610b45565b90915084865260208620601f840160051c810160208510610bdf575b90849392915b601f830160051c82018110610bd1575050610878565b888155859450600101610bbb565b5080610bb5565b634e487b7160e01b85526041600452602485fd5b634e487b7160e01b600052604160045260246000fd5b634e487b7160e01b81526011600452602490fd5b634e487b7160e01b83526011600452602483fd5b346101dd5760203660031901126101dd57600435600052600a602052610cb36040600020610c65816117db565b90600181015490600281015490600381015460048201546005830154600684015491600785015493600960ff6008880154169601549660ff6040519b8c9b6101808d526101808d01906116db565b99610cc360208d0183831661187f565b610cd560408d01838360081c166118a2565b60101c1660608b015260808a015260a089015260c088015260e087015261010086015261012085015215156101408401526101608301520390f35b346101dd5760203660031901126101dd57600435600052600d6020526020604060002054604051908152f35b346101dd5760003660031901126101dd57610d55611e34565b600780546001600160a01b031981169091556000906001600160a01b03167f8be0079c531659141344cd1fd0a4f28419497f9722a3daafe3b4186f6b6457e08280a3005b346101dd5760203660031901126101dd576001600160a01b03610dba611700565b168015610dd95760005260036020526020604060002054604051908152f35b6322718ad960e21b600052600060045260246000fd5b346101dd5760203660031901126101dd576020610e0d600435611c7e565b6040516001600160a01b039091168152f35b346101dd5760203660031901126101dd5760043580600052600b60205260ff604060002054166111805780600052600d6020526040600020549081156111415781600052600a60205260ff6008604060002001541661110257600052600b6020526040600020600160ff1982541617905580600052600a6020526008604060002001600160ff1982541617905580600052600a60205242600660406000200155602090604051610ecf83826117ba565b6000815233156110ec5760008281526002845260408120546001600160a01b0316801515918490836110b8575b338082526003885260408083208054600101905583835260028952822080546001600160a01b031916821790559083907fddf252ad1be2c89b69c2b068fc378daa952ba7f163c4a11628f55a4df523b3ef9080a4506110a257333b610f86575b5033907f5ee038156366d6269b1b1eb8ddbec4c85dce41342b525c6f65b6d03a577fa909600080a3005b82610fc09160405180938192630a85bd0160e11b8352336004840152600060248401528660448401526080606484015260848301906116db565b03816000335af1809160009161105d575b509061102757823d15611020573d610fe8816118af565b90610ff660405192836117ba565b81523d60008383013e5b8051918261101d57633250574960e11b6000523360045260246000fd5b01fd5b6060611000565b9091506001600160e01b03191663757a42ff60e11b01611048578082610f5c565b633250574960e11b6000523360045260246000fd5b8481813d831161109b575b61107281836117ba565b810103126110975751906001600160e01b031982168203611094575084610fd1565b80fd5b5080fd5b503d611068565b6339e3563760e11b600052600060045260246000fd5b600082815260046020526040902080546001600160a01b031916905582815260038752604081208054600019019055610efc565b633250574960e11b600052600060045260246000fd5b60405162461bcd60e51b8152602060048201526017602482015276141bdad95b5bdb88185b1c9958591e4818db185a5b5959604a1b6044820152606490fd5b60405162461bcd60e51b8152602060048201526017602482015276092dcecc2d8d2c840dee440caf0e0d2e4cac840d0c2e6d604b1b6044820152606490fd5b60405162461bcd60e51b815260206004820152601160248201527012185cda08185b1c9958591e481d5cd959607a1b6044820152606490fd5b346101dd576111c73661172c565b6009549192916001600160a01b0316331480156112b6575b6111e89061191f565b81600052600a60205261120560ff600860406000200154166119b6565b82600052600a60205261122260ff6008604060002001541661196a565b61122e838314156119fe565b81600052600a602052600760406000200154603c810180911161032b5761125790421015611a50565b81600052600a602052604060002090600482019182546001810180911161032b57611289935560074291015582611cb5565b7f7cd054335bb55bb2638e23a495f06dbb0d3aa3d9f4e43d3eff6f36635a47b9e6602060405160008152a3005b506007546001600160a01b031633146111df565b346101dd576104d66112db36611746565b90604051926112eb6020856117ba565b600084526104d0838383611a97565b346101dd576104d661130b36611746565b91611a97565b346101dd5761131f3661172c565b6009549192916001600160a01b031633148015611421575b6113409061191f565b81600052600a60205261135d60ff6008604060002001541661196a565b82600052600a60205261137a60ff600860406000200154166119b6565b611386838314156119fe565b81600052600a602052600760406000200154603c810180911161032b576113af90421015611a50565b81600052600a602052604060002090600482018054906001820180921161032b5755600582019182546001810180911161032b576113f4935560074291015582611cb5565b7f7cd054335bb55bb2638e23a495f06dbb0d3aa3d9f4e43d3eff6f36635a47b9e6602060405160018152a3005b506007546001600160a01b03163314611337565b346101dd5760203660031901126101dd57600435600052600c6020526020604060002054604051908152f35b346101dd5760403660031901126101dd5761147a611700565b60243561148681611c7e565b3315158061153d575b8061150f575b6114fa5781906001600160a01b0384811691167f8c5be1e5ebec7d5bd14f71427d1e84f3dd0314c0f7b2291e5b200ac8c7c3b925600080a4600090815260046020526040902080546001600160a01b0319166001600160a01b03909216919091179055005b63a9fbf51f60e01b6000523360045260246000fd5b506001600160a01b038116600090815260056020908152604080832033845290915290205460ff1615611495565b506001600160a01b03811633141561148f565b346101dd5760203660031901126101dd5760043561156d81611c7e565b506000526004602052602060018060a01b0360406000205416604051908152f35b346101dd5760003660031901126101dd57604051600080546115af81611780565b808452906001811690811561069f57506001146115d65761046783610453818503826117ba565b60008080527f290decd9548b62a8d60345a988386fc84ba6bc95484008f6362f93160ef3e563939250905b80821061161957509091508101602001610453610630565b919260018160209254838588010152019101909291611601565b346101dd5760203660031901126101dd576004359063ffffffff60e01b82168092036101dd57602091632483248360e11b8114908115611675575b5015158152f35b6380ac58cd60e01b8114915081156116a7575b8115611696575b508361166e565b6301ffc9a760e01b1490508361168f565b635b5e139f60e01b81149150611688565b60005b8381106116cb5750506000910152565b81810151838201526020016116bb565b906020916116f4815180928185528580860191016116b8565b601f01601f1916010190565b600435906001600160a01b03821682036101dd57565b602435906001600160a01b03821682036101dd57565b60609060031901126101dd57600435906024359060443590565b60609060031901126101dd576004356001600160a01b03811681036101dd57906024356001600160a01b03811681036101dd579060443590565b90600182811c921680156117b0575b602083101461179a57565b634e487b7160e01b600052602260045260246000fd5b91607f169161178f565b90601f801991011681019081106001600160401b03821117610bfa57604052565b90604051918260008254926117ef84611780565b808452936001811690811561185d5750600114611816575b50611814925003836117ba565b565b90506000929192526020600020906000915b8183106118415750509060206118149282010138611807565b6020919350806001915483858901015201910190918492611828565b90506020925061181494915060ff191682840152151560051b82010138611807565b90600882101561188c5752565b634e487b7160e01b600052602160045260246000fd5b90600582101561188c5752565b6001600160401b038111610bfa57601f01601f191660200190565b9291926118d6826118af565b916118e460405193846117ba565b8294818452818301116101dd578281602093846000960137010152565b9080601f830112156101dd5781602061191c933591016118ca565b90565b1561192657565b606460405162461bcd60e51b815260206004820152602060248201527f4e6f7420617574686f72697a656420746f207265636f726420626174746c65736044820152fd5b1561197157565b60405162461bcd60e51b815260206004820152601a60248201527f57696e6e657220706f6b656d6f6e206e6f7420636c61696d65640000000000006044820152606490fd5b156119bd57565b60405162461bcd60e51b8152602060048201526019602482015278131bdcd95c881c1bdad95b5bdb881b9bdd0818db185a5b5959603a1b6044820152606490fd5b15611a0557565b60405162461bcd60e51b815260206004820152601660248201527521b0b73737ba103130ba3a3632903cb7bab939b2b63360511b6044820152606490fd5b9190820180921161032b57565b15611a5757565b60405162461bcd60e51b81526020600482015260186024820152772130ba3a36329031b7b7b63237bbb7103737ba1037bb32b960411b6044820152606490fd5b6001600160a01b03909116919082156110ec576000828152600260205260408120546001600160a01b0316938391859033151580611b8f575b507fddf252ad1be2c89b69c2b068fc378daa952ba7f163c4a11628f55a4df523b3ef9082611b5a575b838152600360209081526040808320805460010190558683526002909152812080546001600160a01b0319168517905580a46001600160a01b0316808303611b4057505050565b6364283d7b60e01b60005260045260245260445260646000fd5b600085815260046020526040902080546001600160a01b03191690558281526003602052604081208054600019019055611af9565b915091925080611bd8575b15611ba9579084849238611ad0565b839085611bc257602491637e27328960e01b8252600452fd5b60449163177e802f60e01b825233600452602452fd5b503385148015611c06575b80611b9a5750838152600460205260408120546001600160a01b03163314611b9a565b5084815260056020908152604080832033845290915281205460ff16611be3565b8181029291811591840414171561032b57565b15611c4157565b60405162461bcd60e51b8152602060048201526015602482015274141bdad95b5bdb88191bd95cdb89dd08195e1a5cdd605a1b6044820152606490fd5b6000818152600260205260409020546001600160a01b0316908115611ca1575090565b637e27328960e01b60005260045260246000fd5b9081600052600a6020526040600020600160ff606460098401611cd9868254611a43565b80915504160160ff811161032b57606460ff821611611e2c575b6001820180549260ff8460101c169360ff841694808611611d42575b50505050505060207f187629ed10c63608fdbe3ae566e392f60bfa2a349ba31cd2ccb14f116c7be85b91604051908152a2565b859694950360ff811161032b5760ff8260081c16600581101561188c57600501918260051161032b57611d7b60ff607f93169384611c27565b611d8a60028601918254611a43565b905560091c16600101958660011161032b57611e1b60209689957fda6eeba9064b97d0227ceb64eb3fcfca81336fb7d13eab5a314cc3155db35bd095611e016003611df77f187629ed10c63608fdbe3ae566e392f60bfa2a349ba31cd2ccb14f116c7be85b9d8d99611c27565b9201918254611a43565b90559062ff000082549160101b169062ff00001916179055565b604051908152a29138808080611d0f565b506064611cf3565b6007546001600160a01b03163303611e4857565b63118cdaa760e01b6000523360045260246000fd5b823b611e6b575b5050505050565b604051630a85bd0160e11b81526001600160a01b039182166004820152918116602483015260448201939093526080606482015291169160209082908190611eb79060848301906116db565b03816000865af18091600091611f57575b5090611f2157503d15611f1a573d611edf816118af565b90611eed60405192836117ba565b81523d6000602083013e5b80519081611f155782633250574960e11b60005260045260246000fd5b602001fd5b6060611ef8565b6001600160e01b03191663757a42ff60e11b01611f4357503880808080611e64565b633250574960e11b60005260045260246000fd5b6020813d602011611f92575b81611f70602093836117ba565b810103126110975751906001600160e01b031982168203611094575038611ec8565b3d9150611f63565b611fa381611c7e565b506000526006602052611fb960406000206117db565b6000604051611fc96020826117ba565b5290565b6040519063c87b56dd60e01b82526004820152600081602481305afa6000918161200d575b5061191c57506040516120066020826117ba565b6000815290565b90913d8082843e61201e81846117ba565b820191602081840312611097578051906001600160401b038211612089570182601f8201121561109757805191612054836118af565b9361206260405195866117ba565b8385526020848401011161109457509061208291602080850191016116b8565b9038611ff2565b8280fdfea26469706673582212202b2f556872b7a04de47e90870ee015fbd8a1f5ab799dbb0e7940bb7eec055cc164736f6c634300081a0033",
  "linkReferences": {},
  "deployedLinkReferences": {}
}